{
	"contracts/ExamUint.sol": {
		"ExampleUint": {
			"abi": [
				{
					"inputs": [],
					"name": "decreaseMyUint8",
					"outputs": [],
					"stateMutability": "nonpayable",
					"type": "function"
				},
				{
					"inputs": [],
					"name": "increaseMyUint8",
					"outputs": [],
					"stateMutability": "nonpayable",
					"type": "function"
				},
				{
					"inputs": [],
					"name": "myUint",
					"outputs": [
						{
							"internalType": "uint256",
							"name": "",
							"type": "uint256"
						}
					],
					"stateMutability": "view",
					"type": "function"
				},
				{
					"inputs": [],
					"name": "myUint8",
					"outputs": [
						{
							"internalType": "uint8",
							"name": "",
							"type": "uint8"
						}
					],
					"stateMutability": "view",
					"type": "function"
				},
				{
					"inputs": [
						{
							"internalType": "uint256",
							"name": "_myUint",
							"type": "uint256"
						}
					],
					"name": "setMyUint",
					"outputs": [],
					"stateMutability": "nonpayable",
					"type": "function"
				}
			],
			"devdoc": {
				"kind": "dev",
				"methods": {},
				"version": 1
			},
			"evm": {
				"assembly": "    /* \"contracts/ExamUint.sol\":59:372  contract ExampleUint{\r... */\n  mstore(0x40, 0x80)\n    /* \"contracts/ExamUint.sol\":140:143  250 */\n  0xfa\n    /* \"contracts/ExamUint.sol\":117:143  uint8 public myUint8 = 250 */\n  0x01\n  exp(0x0100, 0x00)\n  dup2\n  sload\n  dup2\n  0xff\n  mul\n  not\n  and\n  swap1\n  dup4\n  0xff\n  and\n  mul\n  or\n  swap1\n  sstore\n  pop\n    /* \"contracts/ExamUint.sol\":59:372  contract ExampleUint{\r... */\n  callvalue\n  dup1\n  iszero\n  tag_1\n  jumpi\n  0x00\n  dup1\n  revert\ntag_1:\n  pop\n  dataSize(sub_0)\n  dup1\n  dataOffset(sub_0)\n  0x00\n  codecopy\n  0x00\n  return\nstop\n\nsub_0: assembly {\n        /* \"contracts/ExamUint.sol\":59:372  contract ExampleUint{\r... */\n      mstore(0x40, 0x80)\n      callvalue\n      dup1\n      iszero\n      tag_1\n      jumpi\n      0x00\n      dup1\n      revert\n    tag_1:\n      pop\n      jumpi(tag_2, lt(calldatasize, 0x04))\n      shr(0xe0, calldataload(0x00))\n      dup1\n      0x06540f7e\n      eq\n      tag_3\n      jumpi\n      dup1\n      0x1ad16018\n      eq\n      tag_4\n      jumpi\n      dup1\n      0xaad808bc\n      eq\n      tag_5\n      jumpi\n      dup1\n      0xe2a4b2af\n      eq\n      tag_6\n      jumpi\n      dup1\n      0xe492fd84\n      eq\n      tag_7\n      jumpi\n    tag_2:\n      0x00\n      dup1\n      revert\n        /* \"contracts/ExamUint.sol\":86:108  uint256  public myUint */\n    tag_3:\n      tag_8\n      tag_9\n      jump\t// in\n    tag_8:\n      mload(0x40)\n      tag_10\n      swap2\n      swap1\n      tag_11\n      jump\t// in\n    tag_10:\n      mload(0x40)\n      dup1\n      swap2\n      sub\n      swap1\n      return\n        /* \"contracts/ExamUint.sol\":233:297  function increaseMyUint8() public {\r... */\n    tag_4:\n      tag_12\n      tag_13\n      jump\t// in\n    tag_12:\n      stop\n        /* \"contracts/ExamUint.sol\":303:367  function decreaseMyUint8() public {\r... */\n    tag_5:\n      tag_14\n      tag_15\n      jump\t// in\n    tag_14:\n      stop\n        /* \"contracts/ExamUint.sol\":117:143  uint8 public myUint8 = 250 */\n    tag_6:\n      tag_16\n      tag_17\n      jump\t// in\n    tag_16:\n      mload(0x40)\n      tag_18\n      swap2\n      swap1\n      tag_19\n      jump\t// in\n    tag_18:\n      mload(0x40)\n      dup1\n      swap2\n      sub\n      swap1\n      return\n        /* \"contracts/ExamUint.sol\":152:227  function setMyUint(uint _myUint) public {\r... */\n    tag_7:\n      tag_20\n      0x04\n      dup1\n      calldatasize\n      sub\n      dup2\n      add\n      swap1\n      tag_21\n      swap2\n      swap1\n      tag_22\n      jump\t// in\n    tag_21:\n      tag_23\n      jump\t// in\n    tag_20:\n      stop\n        /* \"contracts/ExamUint.sol\":86:108  uint256  public myUint */\n    tag_9:\n      sload(0x00)\n      dup2\n      jump\t// out\n        /* \"contracts/ExamUint.sol\":233:297  function increaseMyUint8() public {\r... */\n    tag_13:\n        /* \"contracts/ExamUint.sol\":278:285  myUint8 */\n      0x01\n      0x00\n        /* \"contracts/ExamUint.sol\":278:287  myUint8++ */\n      dup2\n      dup2\n      swap1\n      sload\n      swap1\n      0x0100\n      exp\n      swap1\n      div\n      0xff\n      and\n      dup1\n      swap3\n      swap2\n      swap1\n      tag_25\n      swap1\n      tag_26\n      jump\t// in\n    tag_25:\n      swap2\n      swap1\n      0x0100\n      exp\n      dup2\n      sload\n      dup2\n      0xff\n      mul\n      not\n      and\n      swap1\n      dup4\n      0xff\n      and\n      mul\n      or\n      swap1\n      sstore\n      pop\n      pop\n        /* \"contracts/ExamUint.sol\":233:297  function increaseMyUint8() public {\r... */\n      jump\t// out\n        /* \"contracts/ExamUint.sol\":303:367  function decreaseMyUint8() public {\r... */\n    tag_15:\n        /* \"contracts/ExamUint.sol\":348:355  myUint8 */\n      0x01\n      0x00\n        /* \"contracts/ExamUint.sol\":348:357  myUint8-- */\n      dup2\n      dup2\n      swap1\n      sload\n      swap1\n      0x0100\n      exp\n      swap1\n      div\n      0xff\n      and\n      dup1\n      swap3\n      swap2\n      swap1\n      tag_28\n      swap1\n      tag_29\n      jump\t// in\n    tag_28:\n      swap2\n      swap1\n      0x0100\n      exp\n      dup2\n      sload\n      dup2\n      0xff\n      mul\n      not\n      and\n      swap1\n      dup4\n      0xff\n      and\n      mul\n      or\n      swap1\n      sstore\n      pop\n      pop\n        /* \"contracts/ExamUint.sol\":303:367  function decreaseMyUint8() public {\r... */\n      jump\t// out\n        /* \"contracts/ExamUint.sol\":117:143  uint8 public myUint8 = 250 */\n    tag_17:\n      0x01\n      0x00\n      swap1\n      sload\n      swap1\n      0x0100\n      exp\n      swap1\n      div\n      0xff\n      and\n      dup2\n      jump\t// out\n        /* \"contracts/ExamUint.sol\":152:227  function setMyUint(uint _myUint) public {\r... */\n    tag_23:\n        /* \"contracts/ExamUint.sol\":212:219  _myUint */\n      dup1\n        /* \"contracts/ExamUint.sol\":203:209  myUint */\n      0x00\n        /* \"contracts/ExamUint.sol\":203:219  myUint = _myUint */\n      dup2\n      swap1\n      sstore\n      pop\n        /* \"contracts/ExamUint.sol\":152:227  function setMyUint(uint _myUint) public {\r... */\n      pop\n      jump\t// out\n        /* \"#utility.yul\":7:146   */\n    tag_32:\n        /* \"#utility.yul\":53:58   */\n      0x00\n        /* \"#utility.yul\":91:97   */\n      dup2\n        /* \"#utility.yul\":78:98   */\n      calldataload\n        /* \"#utility.yul\":69:98   */\n      swap1\n      pop\n        /* \"#utility.yul\":107:140   */\n      tag_34\n        /* \"#utility.yul\":134:139   */\n      dup2\n        /* \"#utility.yul\":107:140   */\n      tag_35\n      jump\t// in\n    tag_34:\n        /* \"#utility.yul\":7:146   */\n      swap3\n      swap2\n      pop\n      pop\n      jump\t// out\n        /* \"#utility.yul\":152:481   */\n    tag_22:\n        /* \"#utility.yul\":211:217   */\n      0x00\n        /* \"#utility.yul\":260:262   */\n      0x20\n        /* \"#utility.yul\":248:257   */\n      dup3\n        /* \"#utility.yul\":239:246   */\n      dup5\n        /* \"#utility.yul\":235:258   */\n      sub\n        /* \"#utility.yul\":231:263   */\n      slt\n        /* \"#utility.yul\":228:347   */\n      iszero\n      tag_37\n      jumpi\n        /* \"#utility.yul\":266:345   */\n      tag_38\n      tag_39\n      jump\t// in\n    tag_38:\n        /* \"#utility.yul\":228:347   */\n    tag_37:\n        /* \"#utility.yul\":386:387   */\n      0x00\n        /* \"#utility.yul\":411:464   */\n      tag_40\n        /* \"#utility.yul\":456:463   */\n      dup5\n        /* \"#utility.yul\":447:453   */\n      dup3\n        /* \"#utility.yul\":436:445   */\n      dup6\n        /* \"#utility.yul\":432:454   */\n      add\n        /* \"#utility.yul\":411:464   */\n      tag_32\n      jump\t// in\n    tag_40:\n        /* \"#utility.yul\":401:464   */\n      swap2\n      pop\n        /* \"#utility.yul\":357:474   */\n      pop\n        /* \"#utility.yul\":152:481   */\n      swap3\n      swap2\n      pop\n      pop\n      jump\t// out\n        /* \"#utility.yul\":487:605   */\n    tag_41:\n        /* \"#utility.yul\":574:598   */\n      tag_43\n        /* \"#utility.yul\":592:597   */\n      dup2\n        /* \"#utility.yul\":574:598   */\n      tag_44\n      jump\t// in\n    tag_43:\n        /* \"#utility.yul\":569:572   */\n      dup3\n        /* \"#utility.yul\":562:599   */\n      mstore\n        /* \"#utility.yul\":487:605   */\n      pop\n      pop\n      jump\t// out\n        /* \"#utility.yul\":611:723   */\n    tag_45:\n        /* \"#utility.yul\":694:716   */\n      tag_47\n        /* \"#utility.yul\":710:715   */\n      dup2\n        /* \"#utility.yul\":694:716   */\n      tag_48\n      jump\t// in\n    tag_47:\n        /* \"#utility.yul\":689:692   */\n      dup3\n        /* \"#utility.yul\":682:717   */\n      mstore\n        /* \"#utility.yul\":611:723   */\n      pop\n      pop\n      jump\t// out\n        /* \"#utility.yul\":729:951   */\n    tag_11:\n        /* \"#utility.yul\":822:826   */\n      0x00\n        /* \"#utility.yul\":860:862   */\n      0x20\n        /* \"#utility.yul\":849:858   */\n      dup3\n        /* \"#utility.yul\":845:863   */\n      add\n        /* \"#utility.yul\":837:863   */\n      swap1\n      pop\n        /* \"#utility.yul\":873:944   */\n      tag_50\n        /* \"#utility.yul\":941:942   */\n      0x00\n        /* \"#utility.yul\":930:939   */\n      dup4\n        /* \"#utility.yul\":926:943   */\n      add\n        /* \"#utility.yul\":917:923   */\n      dup5\n        /* \"#utility.yul\":873:944   */\n      tag_41\n      jump\t// in\n    tag_50:\n        /* \"#utility.yul\":729:951   */\n      swap3\n      swap2\n      pop\n      pop\n      jump\t// out\n        /* \"#utility.yul\":957:1171   */\n    tag_19:\n        /* \"#utility.yul\":1046:1050   */\n      0x00\n        /* \"#utility.yul\":1084:1086   */\n      0x20\n        /* \"#utility.yul\":1073:1082   */\n      dup3\n        /* \"#utility.yul\":1069:1087   */\n      add\n        /* \"#utility.yul\":1061:1087   */\n      swap1\n      pop\n        /* \"#utility.yul\":1097:1164   */\n      tag_52\n        /* \"#utility.yul\":1161:1162   */\n      0x00\n        /* \"#utility.yul\":1150:1159   */\n      dup4\n        /* \"#utility.yul\":1146:1163   */\n      add\n        /* \"#utility.yul\":1137:1143   */\n      dup5\n        /* \"#utility.yul\":1097:1164   */\n      tag_45\n      jump\t// in\n    tag_52:\n        /* \"#utility.yul\":957:1171   */\n      swap3\n      swap2\n      pop\n      pop\n      jump\t// out\n        /* \"#utility.yul\":1258:1335   */\n    tag_44:\n        /* \"#utility.yul\":1295:1302   */\n      0x00\n        /* \"#utility.yul\":1324:1329   */\n      dup2\n        /* \"#utility.yul\":1313:1329   */\n      swap1\n      pop\n        /* \"#utility.yul\":1258:1335   */\n      swap2\n      swap1\n      pop\n      jump\t// out\n        /* \"#utility.yul\":1341:1427   */\n    tag_48:\n        /* \"#utility.yul\":1376:1383   */\n      0x00\n        /* \"#utility.yul\":1416:1420   */\n      0xff\n        /* \"#utility.yul\":1409:1414   */\n      dup3\n        /* \"#utility.yul\":1405:1421   */\n      and\n        /* \"#utility.yul\":1394:1421   */\n      swap1\n      pop\n        /* \"#utility.yul\":1341:1427   */\n      swap2\n      swap1\n      pop\n      jump\t// out\n        /* \"#utility.yul\":1433:1600   */\n    tag_29:\n        /* \"#utility.yul\":1470:1473   */\n      0x00\n        /* \"#utility.yul\":1493:1515   */\n      tag_58\n        /* \"#utility.yul\":1509:1514   */\n      dup3\n        /* \"#utility.yul\":1493:1515   */\n      tag_48\n      jump\t// in\n    tag_58:\n        /* \"#utility.yul\":1484:1515   */\n      swap2\n      pop\n        /* \"#utility.yul\":1537:1541   */\n      0x00\n        /* \"#utility.yul\":1530:1535   */\n      dup3\n        /* \"#utility.yul\":1527:1542   */\n      eq\n        /* \"#utility.yul\":1524:1565   */\n      iszero\n      tag_59\n      jumpi\n        /* \"#utility.yul\":1545:1563   */\n      tag_60\n      tag_61\n      jump\t// in\n    tag_60:\n        /* \"#utility.yul\":1524:1565   */\n    tag_59:\n        /* \"#utility.yul\":1592:1593   */\n      0x01\n        /* \"#utility.yul\":1585:1590   */\n      dup3\n        /* \"#utility.yul\":1581:1594   */\n      sub\n        /* \"#utility.yul\":1574:1594   */\n      swap1\n      pop\n        /* \"#utility.yul\":1433:1600   */\n      swap2\n      swap1\n      pop\n      jump\t// out\n        /* \"#utility.yul\":1606:1773   */\n    tag_26:\n        /* \"#utility.yul\":1643:1646   */\n      0x00\n        /* \"#utility.yul\":1666:1688   */\n      tag_63\n        /* \"#utility.yul\":1682:1687   */\n      dup3\n        /* \"#utility.yul\":1666:1688   */\n      tag_48\n      jump\t// in\n    tag_63:\n        /* \"#utility.yul\":1657:1688   */\n      swap2\n      pop\n        /* \"#utility.yul\":1710:1714   */\n      0xff\n        /* \"#utility.yul\":1703:1708   */\n      dup3\n        /* \"#utility.yul\":1700:1715   */\n      eq\n        /* \"#utility.yul\":1697:1738   */\n      iszero\n      tag_64\n      jumpi\n        /* \"#utility.yul\":1718:1736   */\n      tag_65\n      tag_61\n      jump\t// in\n    tag_65:\n        /* \"#utility.yul\":1697:1738   */\n    tag_64:\n        /* \"#utility.yul\":1765:1766   */\n      0x01\n        /* \"#utility.yul\":1758:1763   */\n      dup3\n        /* \"#utility.yul\":1754:1767   */\n      add\n        /* \"#utility.yul\":1747:1767   */\n      swap1\n      pop\n        /* \"#utility.yul\":1606:1773   */\n      swap2\n      swap1\n      pop\n      jump\t// out\n        /* \"#utility.yul\":1779:1959   */\n    tag_61:\n        /* \"#utility.yul\":1827:1904   */\n      0x4e487b7100000000000000000000000000000000000000000000000000000000\n        /* \"#utility.yul\":1824:1825   */\n      0x00\n        /* \"#utility.yul\":1817:1905   */\n      mstore\n        /* \"#utility.yul\":1924:1928   */\n      0x11\n        /* \"#utility.yul\":1921:1922   */\n      0x04\n        /* \"#utility.yul\":1914:1929   */\n      mstore\n        /* \"#utility.yul\":1948:1952   */\n      0x24\n        /* \"#utility.yul\":1945:1946   */\n      0x00\n        /* \"#utility.yul\":1938:1953   */\n      revert\n        /* \"#utility.yul\":2088:2205   */\n    tag_39:\n        /* \"#utility.yul\":2197:2198   */\n      0x00\n        /* \"#utility.yul\":2194:2195   */\n      dup1\n        /* \"#utility.yul\":2187:2199   */\n      revert\n        /* \"#utility.yul\":2211:2333   */\n    tag_35:\n        /* \"#utility.yul\":2284:2308   */\n      tag_71\n        /* \"#utility.yul\":2302:2307   */\n      dup2\n        /* \"#utility.yul\":2284:2308   */\n      tag_44\n      jump\t// in\n    tag_71:\n        /* \"#utility.yul\":2277:2282   */\n      dup2\n        /* \"#utility.yul\":2274:2309   */\n      eq\n        /* \"#utility.yul\":2264:2327   */\n      tag_72\n      jumpi\n        /* \"#utility.yul\":2323:2324   */\n      0x00\n        /* \"#utility.yul\":2320:2321   */\n      dup1\n        /* \"#utility.yul\":2313:2325   */\n      revert\n        /* \"#utility.yul\":2264:2327   */\n    tag_72:\n        /* \"#utility.yul\":2211:2333   */\n      pop\n      jump\t// out\n\n    auxdata: 0xa264697066735822122037a7afdd1037c9c6c60c8978630e43e35c1f6e7028855407c9c41cdcc552609b64736f6c63430008070033\n}\n",
				"bytecode": {
					"linkReferences": {},
					"object": "608060405260fa600160006101000a81548160ff021916908360ff16021790555034801561002c57600080fd5b506102e18061003c6000396000f3fe608060405234801561001057600080fd5b50600436106100575760003560e01c806306540f7e1461005c5780631ad160181461007a578063aad808bc14610084578063e2a4b2af1461008e578063e492fd84146100ac575b600080fd5b6100646100c8565b60405161007191906101bf565b60405180910390f35b6100826100ce565b005b61008c610108565b005b610096610142565b6040516100a391906101da565b60405180910390f35b6100c660048036038101906100c19190610174565b610155565b005b60005481565b6001600081819054906101000a900460ff16809291906100ed90610236565b91906101000a81548160ff021916908360ff16021790555050565b6001600081819054906101000a900460ff16809291906101279061020c565b91906101000a81548160ff021916908360ff16021790555050565b600160009054906101000a900460ff1681565b8060008190555050565b60008135905061016e81610294565b92915050565b60006020828403121561018a5761018961028f565b5b60006101988482850161015f565b91505092915050565b6101aa816101f5565b82525050565b6101b9816101ff565b82525050565b60006020820190506101d460008301846101a1565b92915050565b60006020820190506101ef60008301846101b0565b92915050565b6000819050919050565b600060ff82169050919050565b6000610217826101ff565b9150600082141561022b5761022a610260565b5b600182039050919050565b6000610241826101ff565b915060ff82141561025557610254610260565b5b600182019050919050565b7f4e487b7100000000000000000000000000000000000000000000000000000000600052601160045260246000fd5b600080fd5b61029d816101f5565b81146102a857600080fd5b5056fea264697066735822122037a7afdd1037c9c6c60c8978630e43e35c1f6e7028855407c9c41cdcc552609b64736f6c63430008070033",
					"opcodes": "PUSH1 0x80 PUSH1 0x40 MSTORE PUSH1 0xFA PUSH1 0x1 PUSH1 0x0 PUSH2 0x100 EXP DUP2 SLOAD DUP2 PUSH1 0xFF MUL NOT AND SWAP1 DUP4 PUSH1 0xFF AND MUL OR SWAP1 SSTORE POP CALLVALUE DUP1 ISZERO PUSH2 0x2C JUMPI PUSH1 0x0 DUP1 REVERT JUMPDEST POP PUSH2 0x2E1 DUP1 PUSH2 0x3C PUSH1 0x0 CODECOPY PUSH1 0x0 RETURN INVALID PUSH1 0x80 PUSH1 0x40 MSTORE CALLVALUE DUP1 ISZERO PUSH2 0x10 JUMPI PUSH1 0x0 DUP1 REVERT JUMPDEST POP PUSH1 0x4 CALLDATASIZE LT PUSH2 0x57 JUMPI PUSH1 0x0 CALLDATALOAD PUSH1 0xE0 SHR DUP1 PUSH4 0x6540F7E EQ PUSH2 0x5C JUMPI DUP1 PUSH4 0x1AD16018 EQ PUSH2 0x7A JUMPI DUP1 PUSH4 0xAAD808BC EQ PUSH2 0x84 JUMPI DUP1 PUSH4 0xE2A4B2AF EQ PUSH2 0x8E JUMPI DUP1 PUSH4 0xE492FD84 EQ PUSH2 0xAC JUMPI JUMPDEST PUSH1 0x0 DUP1 REVERT JUMPDEST PUSH2 0x64 PUSH2 0xC8 JUMP JUMPDEST PUSH1 0x40 MLOAD PUSH2 0x71 SWAP2 SWAP1 PUSH2 0x1BF JUMP JUMPDEST PUSH1 0x40 MLOAD DUP1 SWAP2 SUB SWAP1 RETURN JUMPDEST PUSH2 0x82 PUSH2 0xCE JUMP JUMPDEST STOP JUMPDEST PUSH2 0x8C PUSH2 0x108 JUMP JUMPDEST STOP JUMPDEST PUSH2 0x96 PUSH2 0x142 JUMP JUMPDEST PUSH1 0x40 MLOAD PUSH2 0xA3 SWAP2 SWAP1 PUSH2 0x1DA JUMP JUMPDEST PUSH1 0x40 MLOAD DUP1 SWAP2 SUB SWAP1 RETURN JUMPDEST PUSH2 0xC6 PUSH1 0x4 DUP1 CALLDATASIZE SUB DUP2 ADD SWAP1 PUSH2 0xC1 SWAP2 SWAP1 PUSH2 0x174 JUMP JUMPDEST PUSH2 0x155 JUMP JUMPDEST STOP JUMPDEST PUSH1 0x0 SLOAD DUP2 JUMP JUMPDEST PUSH1 0x1 PUSH1 0x0 DUP2 DUP2 SWAP1 SLOAD SWAP1 PUSH2 0x100 EXP SWAP1 DIV PUSH1 0xFF AND DUP1 SWAP3 SWAP2 SWAP1 PUSH2 0xED SWAP1 PUSH2 0x236 JUMP JUMPDEST SWAP2 SWAP1 PUSH2 0x100 EXP DUP2 SLOAD DUP2 PUSH1 0xFF MUL NOT AND SWAP1 DUP4 PUSH1 0xFF AND MUL OR SWAP1 SSTORE POP POP JUMP JUMPDEST PUSH1 0x1 PUSH1 0x0 DUP2 DUP2 SWAP1 SLOAD SWAP1 PUSH2 0x100 EXP SWAP1 DIV PUSH1 0xFF AND DUP1 SWAP3 SWAP2 SWAP1 PUSH2 0x127 SWAP1 PUSH2 0x20C JUMP JUMPDEST SWAP2 SWAP1 PUSH2 0x100 EXP DUP2 SLOAD DUP2 PUSH1 0xFF MUL NOT AND SWAP1 DUP4 PUSH1 0xFF AND MUL OR SWAP1 SSTORE POP POP JUMP JUMPDEST PUSH1 0x1 PUSH1 0x0 SWAP1 SLOAD SWAP1 PUSH2 0x100 EXP SWAP1 DIV PUSH1 0xFF AND DUP2 JUMP JUMPDEST DUP1 PUSH1 0x0 DUP2 SWAP1 SSTORE POP POP JUMP JUMPDEST PUSH1 0x0 DUP2 CALLDATALOAD SWAP1 POP PUSH2 0x16E DUP2 PUSH2 0x294 JUMP JUMPDEST SWAP3 SWAP2 POP POP JUMP JUMPDEST PUSH1 0x0 PUSH1 0x20 DUP3 DUP5 SUB SLT ISZERO PUSH2 0x18A JUMPI PUSH2 0x189 PUSH2 0x28F JUMP JUMPDEST JUMPDEST PUSH1 0x0 PUSH2 0x198 DUP5 DUP3 DUP6 ADD PUSH2 0x15F JUMP JUMPDEST SWAP2 POP POP SWAP3 SWAP2 POP POP JUMP JUMPDEST PUSH2 0x1AA DUP2 PUSH2 0x1F5 JUMP JUMPDEST DUP3 MSTORE POP POP JUMP JUMPDEST PUSH2 0x1B9 DUP2 PUSH2 0x1FF JUMP JUMPDEST DUP3 MSTORE POP POP JUMP JUMPDEST PUSH1 0x0 PUSH1 0x20 DUP3 ADD SWAP1 POP PUSH2 0x1D4 PUSH1 0x0 DUP4 ADD DUP5 PUSH2 0x1A1 JUMP JUMPDEST SWAP3 SWAP2 POP POP JUMP JUMPDEST PUSH1 0x0 PUSH1 0x20 DUP3 ADD SWAP1 POP PUSH2 0x1EF PUSH1 0x0 DUP4 ADD DUP5 PUSH2 0x1B0 JUMP JUMPDEST SWAP3 SWAP2 POP POP JUMP JUMPDEST PUSH1 0x0 DUP2 SWAP1 POP SWAP2 SWAP1 POP JUMP JUMPDEST PUSH1 0x0 PUSH1 0xFF DUP3 AND SWAP1 POP SWAP2 SWAP1 POP JUMP JUMPDEST PUSH1 0x0 PUSH2 0x217 DUP3 PUSH2 0x1FF JUMP JUMPDEST SWAP2 POP PUSH1 0x0 DUP3 EQ ISZERO PUSH2 0x22B JUMPI PUSH2 0x22A PUSH2 0x260 JUMP JUMPDEST JUMPDEST PUSH1 0x1 DUP3 SUB SWAP1 POP SWAP2 SWAP1 POP JUMP JUMPDEST PUSH1 0x0 PUSH2 0x241 DUP3 PUSH2 0x1FF JUMP JUMPDEST SWAP2 POP PUSH1 0xFF DUP3 EQ ISZERO PUSH2 0x255 JUMPI PUSH2 0x254 PUSH2 0x260 JUMP JUMPDEST JUMPDEST PUSH1 0x1 DUP3 ADD SWAP1 POP SWAP2 SWAP1 POP JUMP JUMPDEST PUSH32 0x4E487B7100000000000000000000000000000000000000000000000000000000 PUSH1 0x0 MSTORE PUSH1 0x11 PUSH1 0x4 MSTORE PUSH1 0x24 PUSH1 0x0 REVERT JUMPDEST PUSH1 0x0 DUP1 REVERT JUMPDEST PUSH2 0x29D DUP2 PUSH2 0x1F5 JUMP JUMPDEST DUP2 EQ PUSH2 0x2A8 JUMPI PUSH1 0x0 DUP1 REVERT JUMPDEST POP JUMP INVALID LOG2 PUSH5 0x6970667358 0x22 SLT KECCAK256 CALLDATACOPY 0xA7 0xAF 0xDD LT CALLDATACOPY 0xC9 0xC6 0xC6 0xC DUP10 PUSH25 0x630E43E35C1F6E7028855407C9C41CDCC552609B64736F6C63 NUMBER STOP ADDMOD SMOD STOP CALLER "
				},
				"gasEstimates": {
					"creation": {
						"codeDepositCost": "147400",
						"executionCost": "24463",
						"totalCost": "171863"
					},
					"external": {
						"decreaseMyUint8()": "26724",
						"increaseMyUint8()": "26702",
						"myUint()": "2407",
						"myUint8()": "2515",
						"setMyUint(uint256)": "22586"
					}
				},
				"methodIdentifiers": {
					"decreaseMyUint8()": "aad808bc",
					"increaseMyUint8()": "1ad16018",
					"myUint()": "06540f7e",
					"myUint8()": "e2a4b2af",
					"setMyUint(uint256)": "e492fd84"
				}
			},
			"storageLayout": {
				"storage": [
					{
						"astId": 3,
						"contract": "contracts/ExamUint.sol:ExampleUint",
						"label": "myUint",
						"offset": 0,
						"slot": "0",
						"type": "t_uint256"
					},
					{
						"astId": 6,
						"contract": "contracts/ExamUint.sol:ExampleUint",
						"label": "myUint8",
						"offset": 0,
						"slot": "1",
						"type": "t_uint8"
					}
				],
				"types": {
					"t_uint256": {
						"encoding": "inplace",
						"label": "uint256",
						"numberOfBytes": "32"
					},
					"t_uint8": {
						"encoding": "inplace",
						"label": "uint8",
						"numberOfBytes": "1"
					}
				}
			},
			"userdoc": {
				"kind": "user",
				"methods": {},
				"version": 1
			}
		}
	}
}