{
	"contracts/ExampleStrings.sol": {
		"ExampleStrings": {
			"abi": [
				{
					"inputs": [
						{
							"internalType": "string",
							"name": "_myString",
							"type": "string"
						}
					],
					"name": "compareTwoStrings",
					"outputs": [
						{
							"internalType": "bool",
							"name": "",
							"type": "bool"
						}
					],
					"stateMutability": "view",
					"type": "function"
				},
				{
					"inputs": [],
					"name": "myString",
					"outputs": [
						{
							"internalType": "string",
							"name": "",
							"type": "string"
						}
					],
					"stateMutability": "view",
					"type": "function"
				},
				{
					"inputs": [
						{
							"internalType": "string",
							"name": "_myString",
							"type": "string"
						}
					],
					"name": "setMyString",
					"outputs": [],
					"stateMutability": "nonpayable",
					"type": "function"
				}
			],
			"devdoc": {
				"kind": "dev",
				"methods": {},
				"version": 1
			},
			"evm": {
				"assembly": "    /* \"contracts/ExampleStrings.sol\":60:426  contract ExampleStrings{... */\n  mstore(0x40, 0x80)\n    /* \"contracts/ExampleStrings.sol\":90:128  string public myString = \"Hello World\" */\n  mload(0x40)\n  dup1\n  0x40\n  add\n  0x40\n  mstore\n  dup1\n  0x0b\n  dup2\n  mstore\n  0x20\n  add\n  0x48656c6c6f20576f726c64000000000000000000000000000000000000000000\n  dup2\n  mstore\n  pop\n  0x00\n  swap1\n  dup2\n  tag_1\n  swap2\n  swap1\n  tag_2\n  jump\t// in\ntag_1:\n  pop\n    /* \"contracts/ExampleStrings.sol\":60:426  contract ExampleStrings{... */\n  callvalue\n  dup1\n  iszero\n  tag_3\n  jumpi\n  0x00\n  dup1\n  revert\ntag_3:\n  pop\n  jump(tag_4)\n    /* \"#utility.yul\":7:106   */\ntag_5:\n    /* \"#utility.yul\":59:65   */\n  0x00\n    /* \"#utility.yul\":93:98   */\n  dup2\n    /* \"#utility.yul\":87:99   */\n  mload\n    /* \"#utility.yul\":77:99   */\n  swap1\n  pop\n    /* \"#utility.yul\":7:106   */\n  swap2\n  swap1\n  pop\n  jump\t// out\n    /* \"#utility.yul\":112:292   */\ntag_6:\n    /* \"#utility.yul\":160:237   */\n  0x4e487b7100000000000000000000000000000000000000000000000000000000\n    /* \"#utility.yul\":157:158   */\n  0x00\n    /* \"#utility.yul\":150:238   */\n  mstore\n    /* \"#utility.yul\":257:261   */\n  0x41\n    /* \"#utility.yul\":254:255   */\n  0x04\n    /* \"#utility.yul\":247:262   */\n  mstore\n    /* \"#utility.yul\":281:285   */\n  0x24\n    /* \"#utility.yul\":278:279   */\n  0x00\n    /* \"#utility.yul\":271:286   */\n  revert\n    /* \"#utility.yul\":298:478   */\ntag_7:\n    /* \"#utility.yul\":346:423   */\n  0x4e487b7100000000000000000000000000000000000000000000000000000000\n    /* \"#utility.yul\":343:344   */\n  0x00\n    /* \"#utility.yul\":336:424   */\n  mstore\n    /* \"#utility.yul\":443:447   */\n  0x22\n    /* \"#utility.yul\":440:441   */\n  0x04\n    /* \"#utility.yul\":433:448   */\n  mstore\n    /* \"#utility.yul\":467:471   */\n  0x24\n    /* \"#utility.yul\":464:465   */\n  0x00\n    /* \"#utility.yul\":457:472   */\n  revert\n    /* \"#utility.yul\":484:804   */\ntag_8:\n    /* \"#utility.yul\":528:534   */\n  0x00\n    /* \"#utility.yul\":565:566   */\n  0x02\n    /* \"#utility.yul\":559:563   */\n  dup3\n    /* \"#utility.yul\":555:567   */\n  div\n    /* \"#utility.yul\":545:567   */\n  swap1\n  pop\n    /* \"#utility.yul\":612:613   */\n  0x01\n    /* \"#utility.yul\":606:610   */\n  dup3\n    /* \"#utility.yul\":602:614   */\n  and\n    /* \"#utility.yul\":633:651   */\n  dup1\n    /* \"#utility.yul\":623:704   */\n  tag_30\n  jumpi\n    /* \"#utility.yul\":689:693   */\n  0x7f\n    /* \"#utility.yul\":681:687   */\n  dup3\n    /* \"#utility.yul\":677:694   */\n  and\n    /* \"#utility.yul\":667:694   */\n  swap2\n  pop\n    /* \"#utility.yul\":623:704   */\ntag_30:\n    /* \"#utility.yul\":751:753   */\n  0x20\n    /* \"#utility.yul\":743:749   */\n  dup3\n    /* \"#utility.yul\":740:754   */\n  lt\n    /* \"#utility.yul\":720:738   */\n  dup2\n    /* \"#utility.yul\":717:755   */\n  sub\n    /* \"#utility.yul\":714:798   */\n  tag_31\n  jumpi\n    /* \"#utility.yul\":770:788   */\n  tag_32\n  tag_7\n  jump\t// in\ntag_32:\n    /* \"#utility.yul\":714:798   */\ntag_31:\n    /* \"#utility.yul\":535:804   */\n  pop\n    /* \"#utility.yul\":484:804   */\n  swap2\n  swap1\n  pop\n  jump\t// out\n    /* \"#utility.yul\":810:951   */\ntag_9:\n    /* \"#utility.yul\":859:863   */\n  0x00\n    /* \"#utility.yul\":882:885   */\n  dup2\n    /* \"#utility.yul\":874:885   */\n  swap1\n  pop\n    /* \"#utility.yul\":905:908   */\n  dup2\n    /* \"#utility.yul\":902:903   */\n  0x00\n    /* \"#utility.yul\":895:909   */\n  mstore\n    /* \"#utility.yul\":939:943   */\n  0x20\n    /* \"#utility.yul\":936:937   */\n  0x00\n    /* \"#utility.yul\":926:944   */\n  keccak256\n    /* \"#utility.yul\":918:944   */\n  swap1\n  pop\n    /* \"#utility.yul\":810:951   */\n  swap2\n  swap1\n  pop\n  jump\t// out\n    /* \"#utility.yul\":957:1050   */\ntag_10:\n    /* \"#utility.yul\":994:1000   */\n  0x00\n    /* \"#utility.yul\":1041:1043   */\n  0x20\n    /* \"#utility.yul\":1036:1038   */\n  0x1f\n    /* \"#utility.yul\":1029:1034   */\n  dup4\n    /* \"#utility.yul\":1025:1039   */\n  add\n    /* \"#utility.yul\":1021:1044   */\n  div\n    /* \"#utility.yul\":1011:1044   */\n  swap1\n  pop\n    /* \"#utility.yul\":957:1050   */\n  swap2\n  swap1\n  pop\n  jump\t// out\n    /* \"#utility.yul\":1056:1163   */\ntag_11:\n    /* \"#utility.yul\":1100:1108   */\n  0x00\n    /* \"#utility.yul\":1150:1155   */\n  dup3\n    /* \"#utility.yul\":1144:1148   */\n  dup3\n    /* \"#utility.yul\":1140:1156   */\n  shl\n    /* \"#utility.yul\":1119:1156   */\n  swap1\n  pop\n    /* \"#utility.yul\":1056:1163   */\n  swap3\n  swap2\n  pop\n  pop\n  jump\t// out\n    /* \"#utility.yul\":1169:1562   */\ntag_12:\n    /* \"#utility.yul\":1238:1244   */\n  0x00\n    /* \"#utility.yul\":1288:1289   */\n  0x08\n    /* \"#utility.yul\":1276:1286   */\n  dup4\n    /* \"#utility.yul\":1272:1290   */\n  mul\n    /* \"#utility.yul\":1311:1408   */\n  tag_37\n    /* \"#utility.yul\":1341:1407   */\n  0xffffffffffffffffffffffffffffffffffffffffffffffffffffffffffffffff\n    /* \"#utility.yul\":1330:1339   */\n  dup3\n    /* \"#utility.yul\":1311:1408   */\n  tag_11\n  jump\t// in\ntag_37:\n    /* \"#utility.yul\":1429:1468   */\n  tag_38\n    /* \"#utility.yul\":1459:1467   */\n  dup7\n    /* \"#utility.yul\":1448:1457   */\n  dup4\n    /* \"#utility.yul\":1429:1468   */\n  tag_11\n  jump\t// in\ntag_38:\n    /* \"#utility.yul\":1417:1468   */\n  swap6\n  pop\n    /* \"#utility.yul\":1501:1505   */\n  dup1\n    /* \"#utility.yul\":1497:1506   */\n  not\n    /* \"#utility.yul\":1490:1495   */\n  dup5\n    /* \"#utility.yul\":1486:1507   */\n  and\n    /* \"#utility.yul\":1477:1507   */\n  swap4\n  pop\n    /* \"#utility.yul\":1550:1554   */\n  dup1\n    /* \"#utility.yul\":1540:1548   */\n  dup7\n    /* \"#utility.yul\":1536:1555   */\n  and\n    /* \"#utility.yul\":1529:1534   */\n  dup5\n    /* \"#utility.yul\":1526:1556   */\n  or\n    /* \"#utility.yul\":1516:1556   */\n  swap3\n  pop\n    /* \"#utility.yul\":1245:1562   */\n  pop\n  pop\n    /* \"#utility.yul\":1169:1562   */\n  swap4\n  swap3\n  pop\n  pop\n  pop\n  jump\t// out\n    /* \"#utility.yul\":1568:1645   */\ntag_13:\n    /* \"#utility.yul\":1605:1612   */\n  0x00\n    /* \"#utility.yul\":1634:1639   */\n  dup2\n    /* \"#utility.yul\":1623:1639   */\n  swap1\n  pop\n    /* \"#utility.yul\":1568:1645   */\n  swap2\n  swap1\n  pop\n  jump\t// out\n    /* \"#utility.yul\":1651:1711   */\ntag_14:\n    /* \"#utility.yul\":1679:1682   */\n  0x00\n    /* \"#utility.yul\":1700:1705   */\n  dup2\n    /* \"#utility.yul\":1693:1705   */\n  swap1\n  pop\n    /* \"#utility.yul\":1651:1711   */\n  swap2\n  swap1\n  pop\n  jump\t// out\n    /* \"#utility.yul\":1717:1859   */\ntag_15:\n    /* \"#utility.yul\":1767:1776   */\n  0x00\n    /* \"#utility.yul\":1800:1853   */\n  tag_42\n    /* \"#utility.yul\":1818:1852   */\n  tag_43\n    /* \"#utility.yul\":1827:1851   */\n  tag_44\n    /* \"#utility.yul\":1845:1850   */\n  dup5\n    /* \"#utility.yul\":1827:1851   */\n  tag_13\n  jump\t// in\ntag_44:\n    /* \"#utility.yul\":1818:1852   */\n  tag_14\n  jump\t// in\ntag_43:\n    /* \"#utility.yul\":1800:1853   */\n  tag_13\n  jump\t// in\ntag_42:\n    /* \"#utility.yul\":1787:1853   */\n  swap1\n  pop\n    /* \"#utility.yul\":1717:1859   */\n  swap2\n  swap1\n  pop\n  jump\t// out\n    /* \"#utility.yul\":1865:1940   */\ntag_16:\n    /* \"#utility.yul\":1908:1911   */\n  0x00\n    /* \"#utility.yul\":1929:1934   */\n  dup2\n    /* \"#utility.yul\":1922:1934   */\n  swap1\n  pop\n    /* \"#utility.yul\":1865:1940   */\n  swap2\n  swap1\n  pop\n  jump\t// out\n    /* \"#utility.yul\":1946:2215   */\ntag_17:\n    /* \"#utility.yul\":2056:2095   */\n  tag_47\n    /* \"#utility.yul\":2087:2094   */\n  dup4\n    /* \"#utility.yul\":2056:2095   */\n  tag_15\n  jump\t// in\ntag_47:\n    /* \"#utility.yul\":2117:2208   */\n  tag_48\n    /* \"#utility.yul\":2166:2207   */\n  tag_49\n    /* \"#utility.yul\":2190:2206   */\n  dup3\n    /* \"#utility.yul\":2166:2207   */\n  tag_16\n  jump\t// in\ntag_49:\n    /* \"#utility.yul\":2158:2164   */\n  dup5\n    /* \"#utility.yul\":2151:2155   */\n  dup5\n    /* \"#utility.yul\":2145:2156   */\n  sload\n    /* \"#utility.yul\":2117:2208   */\n  tag_12\n  jump\t// in\ntag_48:\n    /* \"#utility.yul\":2111:2115   */\n  dup3\n    /* \"#utility.yul\":2104:2209   */\n  sstore\n    /* \"#utility.yul\":2022:2215   */\n  pop\n    /* \"#utility.yul\":1946:2215   */\n  pop\n  pop\n  pop\n  jump\t// out\n    /* \"#utility.yul\":2221:2294   */\ntag_18:\n    /* \"#utility.yul\":2266:2269   */\n  0x00\n    /* \"#utility.yul\":2221:2294   */\n  swap1\n  jump\t// out\n    /* \"#utility.yul\":2300:2489   */\ntag_19:\n    /* \"#utility.yul\":2377:2409   */\n  tag_52\n  tag_18\n  jump\t// in\ntag_52:\n    /* \"#utility.yul\":2418:2483   */\n  tag_53\n    /* \"#utility.yul\":2476:2482   */\n  dup2\n    /* \"#utility.yul\":2468:2474   */\n  dup5\n    /* \"#utility.yul\":2462:2466   */\n  dup5\n    /* \"#utility.yul\":2418:2483   */\n  tag_17\n  jump\t// in\ntag_53:\n    /* \"#utility.yul\":2353:2489   */\n  pop\n    /* \"#utility.yul\":2300:2489   */\n  pop\n  pop\n  jump\t// out\n    /* \"#utility.yul\":2495:2681   */\ntag_20:\n    /* \"#utility.yul\":2555:2675   */\ntag_55:\n    /* \"#utility.yul\":2572:2575   */\n  dup2\n    /* \"#utility.yul\":2565:2570   */\n  dup2\n    /* \"#utility.yul\":2562:2576   */\n  lt\n    /* \"#utility.yul\":2555:2675   */\n  iszero\n  tag_57\n  jumpi\n    /* \"#utility.yul\":2626:2665   */\n  tag_58\n    /* \"#utility.yul\":2663:2664   */\n  0x00\n    /* \"#utility.yul\":2656:2661   */\n  dup3\n    /* \"#utility.yul\":2626:2665   */\n  tag_19\n  jump\t// in\ntag_58:\n    /* \"#utility.yul\":2599:2600   */\n  0x01\n    /* \"#utility.yul\":2592:2597   */\n  dup2\n    /* \"#utility.yul\":2588:2601   */\n  add\n    /* \"#utility.yul\":2579:2601   */\n  swap1\n  pop\n    /* \"#utility.yul\":2555:2675   */\n  jump(tag_55)\ntag_57:\n    /* \"#utility.yul\":2495:2681   */\n  pop\n  pop\n  jump\t// out\n    /* \"#utility.yul\":2687:3230   */\ntag_21:\n    /* \"#utility.yul\":2788:2790   */\n  0x1f\n    /* \"#utility.yul\":2783:2786   */\n  dup3\n    /* \"#utility.yul\":2780:2791   */\n  gt\n    /* \"#utility.yul\":2777:3223   */\n  iszero\n  tag_60\n  jumpi\n    /* \"#utility.yul\":2822:2860   */\n  tag_61\n    /* \"#utility.yul\":2854:2859   */\n  dup2\n    /* \"#utility.yul\":2822:2860   */\n  tag_9\n  jump\t// in\ntag_61:\n    /* \"#utility.yul\":2906:2935   */\n  tag_62\n    /* \"#utility.yul\":2924:2934   */\n  dup5\n    /* \"#utility.yul\":2906:2935   */\n  tag_10\n  jump\t// in\ntag_62:\n    /* \"#utility.yul\":2896:2904   */\n  dup2\n    /* \"#utility.yul\":2892:2936   */\n  add\n    /* \"#utility.yul\":3089:3091   */\n  0x20\n    /* \"#utility.yul\":3077:3087   */\n  dup6\n    /* \"#utility.yul\":3074:3092   */\n  lt\n    /* \"#utility.yul\":3071:3120   */\n  iszero\n  tag_63\n  jumpi\n    /* \"#utility.yul\":3110:3118   */\n  dup2\n    /* \"#utility.yul\":3095:3118   */\n  swap1\n  pop\n    /* \"#utility.yul\":3071:3120   */\ntag_63:\n    /* \"#utility.yul\":3133:3213   */\n  tag_64\n    /* \"#utility.yul\":3189:3211   */\n  tag_65\n    /* \"#utility.yul\":3207:3210   */\n  dup6\n    /* \"#utility.yul\":3189:3211   */\n  tag_10\n  jump\t// in\ntag_65:\n    /* \"#utility.yul\":3179:3187   */\n  dup4\n    /* \"#utility.yul\":3175:3212   */\n  add\n    /* \"#utility.yul\":3162:3173   */\n  dup3\n    /* \"#utility.yul\":3133:3213   */\n  tag_20\n  jump\t// in\ntag_64:\n    /* \"#utility.yul\":2792:3223   */\n  pop\n  pop\n    /* \"#utility.yul\":2777:3223   */\ntag_60:\n    /* \"#utility.yul\":2687:3230   */\n  pop\n  pop\n  pop\n  jump\t// out\n    /* \"#utility.yul\":3236:3353   */\ntag_22:\n    /* \"#utility.yul\":3290:3298   */\n  0x00\n    /* \"#utility.yul\":3340:3345   */\n  dup3\n    /* \"#utility.yul\":3334:3338   */\n  dup3\n    /* \"#utility.yul\":3330:3346   */\n  shr\n    /* \"#utility.yul\":3309:3346   */\n  swap1\n  pop\n    /* \"#utility.yul\":3236:3353   */\n  swap3\n  swap2\n  pop\n  pop\n  jump\t// out\n    /* \"#utility.yul\":3359:3528   */\ntag_23:\n    /* \"#utility.yul\":3403:3409   */\n  0x00\n    /* \"#utility.yul\":3436:3487   */\n  tag_68\n    /* \"#utility.yul\":3484:3485   */\n  0x00\n    /* \"#utility.yul\":3480:3486   */\n  not\n    /* \"#utility.yul\":3472:3477   */\n  dup5\n    /* \"#utility.yul\":3469:3470   */\n  0x08\n    /* \"#utility.yul\":3465:3478   */\n  mul\n    /* \"#utility.yul\":3436:3487   */\n  tag_22\n  jump\t// in\ntag_68:\n    /* \"#utility.yul\":3432:3488   */\n  not\n    /* \"#utility.yul\":3517:3521   */\n  dup1\n    /* \"#utility.yul\":3511:3515   */\n  dup4\n    /* \"#utility.yul\":3507:3522   */\n  and\n    /* \"#utility.yul\":3497:3522   */\n  swap2\n  pop\n    /* \"#utility.yul\":3410:3528   */\n  pop\n    /* \"#utility.yul\":3359:3528   */\n  swap3\n  swap2\n  pop\n  pop\n  jump\t// out\n    /* \"#utility.yul\":3533:3828   */\ntag_24:\n    /* \"#utility.yul\":3609:3613   */\n  0x00\n    /* \"#utility.yul\":3755:3784   */\n  tag_70\n    /* \"#utility.yul\":3780:3783   */\n  dup4\n    /* \"#utility.yul\":3774:3778   */\n  dup4\n    /* \"#utility.yul\":3755:3784   */\n  tag_23\n  jump\t// in\ntag_70:\n    /* \"#utility.yul\":3747:3784   */\n  swap2\n  pop\n    /* \"#utility.yul\":3817:3820   */\n  dup3\n    /* \"#utility.yul\":3814:3815   */\n  0x02\n    /* \"#utility.yul\":3810:3821   */\n  mul\n    /* \"#utility.yul\":3804:3808   */\n  dup3\n    /* \"#utility.yul\":3801:3822   */\n  or\n    /* \"#utility.yul\":3793:3822   */\n  swap1\n  pop\n    /* \"#utility.yul\":3533:3828   */\n  swap3\n  swap2\n  pop\n  pop\n  jump\t// out\n    /* \"#utility.yul\":3833:5228   */\ntag_2:\n    /* \"#utility.yul\":3950:3987   */\n  tag_72\n    /* \"#utility.yul\":3983:3986   */\n  dup3\n    /* \"#utility.yul\":3950:3987   */\n  tag_5\n  jump\t// in\ntag_72:\n    /* \"#utility.yul\":4052:4070   */\n  0xffffffffffffffff\n    /* \"#utility.yul\":4044:4050   */\n  dup2\n    /* \"#utility.yul\":4041:4071   */\n  gt\n    /* \"#utility.yul\":4038:4094   */\n  iszero\n  tag_73\n  jumpi\n    /* \"#utility.yul\":4074:4092   */\n  tag_74\n  tag_6\n  jump\t// in\ntag_74:\n    /* \"#utility.yul\":4038:4094   */\ntag_73:\n    /* \"#utility.yul\":4118:4156   */\n  tag_75\n    /* \"#utility.yul\":4150:4154   */\n  dup3\n    /* \"#utility.yul\":4144:4155   */\n  sload\n    /* \"#utility.yul\":4118:4156   */\n  tag_8\n  jump\t// in\ntag_75:\n    /* \"#utility.yul\":4203:4270   */\n  tag_76\n    /* \"#utility.yul\":4263:4269   */\n  dup3\n    /* \"#utility.yul\":4255:4261   */\n  dup3\n    /* \"#utility.yul\":4249:4253   */\n  dup6\n    /* \"#utility.yul\":4203:4270   */\n  tag_21\n  jump\t// in\ntag_76:\n    /* \"#utility.yul\":4297:4298   */\n  0x00\n    /* \"#utility.yul\":4321:4325   */\n  0x20\n    /* \"#utility.yul\":4308:4325   */\n  swap1\n  pop\n    /* \"#utility.yul\":4353:4355   */\n  0x1f\n    /* \"#utility.yul\":4345:4351   */\n  dup4\n    /* \"#utility.yul\":4342:4356   */\n  gt\n    /* \"#utility.yul\":4370:4371   */\n  0x01\n    /* \"#utility.yul\":4365:4983   */\n  dup2\n  eq\n  tag_78\n  jumpi\n    /* \"#utility.yul\":5027:5028   */\n  0x00\n    /* \"#utility.yul\":5044:5050   */\n  dup5\n    /* \"#utility.yul\":5041:5118   */\n  iszero\n  tag_79\n  jumpi\n    /* \"#utility.yul\":5093:5102   */\n  dup3\n    /* \"#utility.yul\":5088:5091   */\n  dup8\n    /* \"#utility.yul\":5084:5103   */\n  add\n    /* \"#utility.yul\":5078:5104   */\n  mload\n    /* \"#utility.yul\":5069:5104   */\n  swap1\n  pop\n    /* \"#utility.yul\":5041:5118   */\ntag_79:\n    /* \"#utility.yul\":5144:5211   */\n  tag_80\n    /* \"#utility.yul\":5204:5210   */\n  dup6\n    /* \"#utility.yul\":5197:5202   */\n  dup3\n    /* \"#utility.yul\":5144:5211   */\n  tag_24\n  jump\t// in\ntag_80:\n    /* \"#utility.yul\":5138:5142   */\n  dup7\n    /* \"#utility.yul\":5131:5212   */\n  sstore\n    /* \"#utility.yul\":5000:5222   */\n  pop\n    /* \"#utility.yul\":4335:5222   */\n  jump(tag_77)\n    /* \"#utility.yul\":4365:4983   */\ntag_78:\n    /* \"#utility.yul\":4417:4421   */\n  0x1f\n    /* \"#utility.yul\":4413:4422   */\n  not\n    /* \"#utility.yul\":4405:4411   */\n  dup5\n    /* \"#utility.yul\":4401:4423   */\n  and\n    /* \"#utility.yul\":4451:4488   */\n  tag_81\n    /* \"#utility.yul\":4483:4487   */\n  dup7\n    /* \"#utility.yul\":4451:4488   */\n  tag_9\n  jump\t// in\ntag_81:\n    /* \"#utility.yul\":4510:4511   */\n  0x00\n    /* \"#utility.yul\":4524:4732   */\ntag_82:\n    /* \"#utility.yul\":4538:4545   */\n  dup3\n    /* \"#utility.yul\":4535:4536   */\n  dup2\n    /* \"#utility.yul\":4532:4546   */\n  lt\n    /* \"#utility.yul\":4524:4732   */\n  iszero\n  tag_84\n  jumpi\n    /* \"#utility.yul\":4617:4626   */\n  dup5\n    /* \"#utility.yul\":4612:4615   */\n  dup10\n    /* \"#utility.yul\":4608:4627   */\n  add\n    /* \"#utility.yul\":4602:4628   */\n  mload\n    /* \"#utility.yul\":4594:4600   */\n  dup3\n    /* \"#utility.yul\":4587:4629   */\n  sstore\n    /* \"#utility.yul\":4668:4669   */\n  0x01\n    /* \"#utility.yul\":4660:4666   */\n  dup3\n    /* \"#utility.yul\":4656:4670   */\n  add\n    /* \"#utility.yul\":4646:4670   */\n  swap2\n  pop\n    /* \"#utility.yul\":4715:4717   */\n  0x20\n    /* \"#utility.yul\":4704:4713   */\n  dup6\n    /* \"#utility.yul\":4700:4718   */\n  add\n    /* \"#utility.yul\":4687:4718   */\n  swap5\n  pop\n    /* \"#utility.yul\":4561:4565   */\n  0x20\n    /* \"#utility.yul\":4558:4559   */\n  dup2\n    /* \"#utility.yul\":4554:4566   */\n  add\n    /* \"#utility.yul\":4549:4566   */\n  swap1\n  pop\n    /* \"#utility.yul\":4524:4732   */\n  jump(tag_82)\ntag_84:\n    /* \"#utility.yul\":4760:4766   */\n  dup7\n    /* \"#utility.yul\":4751:4758   */\n  dup4\n    /* \"#utility.yul\":4748:4767   */\n  lt\n    /* \"#utility.yul\":4745:4924   */\n  iszero\n  tag_85\n  jumpi\n    /* \"#utility.yul\":4818:4827   */\n  dup5\n    /* \"#utility.yul\":4813:4816   */\n  dup10\n    /* \"#utility.yul\":4809:4828   */\n  add\n    /* \"#utility.yul\":4803:4829   */\n  mload\n    /* \"#utility.yul\":4861:4909   */\n  tag_86\n    /* \"#utility.yul\":4903:4907   */\n  0x1f\n    /* \"#utility.yul\":4895:4901   */\n  dup10\n    /* \"#utility.yul\":4891:4908   */\n  and\n    /* \"#utility.yul\":4880:4889   */\n  dup3\n    /* \"#utility.yul\":4861:4909   */\n  tag_23\n  jump\t// in\ntag_86:\n    /* \"#utility.yul\":4853:4859   */\n  dup4\n    /* \"#utility.yul\":4846:4910   */\n  sstore\n    /* \"#utility.yul\":4768:4924   */\n  pop\n    /* \"#utility.yul\":4745:4924   */\ntag_85:\n    /* \"#utility.yul\":4970:4971   */\n  0x01\n    /* \"#utility.yul\":4966:4967   */\n  0x02\n    /* \"#utility.yul\":4958:4964   */\n  dup9\n    /* \"#utility.yul\":4954:4968   */\n  mul\n    /* \"#utility.yul\":4950:4972   */\n  add\n    /* \"#utility.yul\":4944:4948   */\n  dup9\n    /* \"#utility.yul\":4937:4973   */\n  sstore\n    /* \"#utility.yul\":4372:4983   */\n  pop\n  pop\n  pop\n    /* \"#utility.yul\":4335:5222   */\ntag_77:\n  pop\n    /* \"#utility.yul\":3925:5228   */\n  pop\n  pop\n  pop\n    /* \"#utility.yul\":3833:5228   */\n  pop\n  pop\n  jump\t// out\n    /* \"contracts/ExampleStrings.sol\":60:426  contract ExampleStrings{... */\ntag_4:\n  dataSize(sub_0)\n  dup1\n  dataOffset(sub_0)\n  0x00\n  codecopy\n  0x00\n  return\nstop\n\nsub_0: assembly {\n        /* \"contracts/ExampleStrings.sol\":60:426  contract ExampleStrings{... */\n      mstore(0x40, 0x80)\n      callvalue\n      dup1\n      iszero\n      tag_1\n      jumpi\n      0x00\n      dup1\n      revert\n    tag_1:\n      pop\n      jumpi(tag_2, lt(calldatasize, 0x04))\n      shr(0xe0, calldataload(0x00))\n      dup1\n      0x492bfa18\n      eq\n      tag_3\n      jumpi\n      dup1\n      0x5ce25353\n      eq\n      tag_4\n      jumpi\n      dup1\n      0x82180568\n      eq\n      tag_5\n      jumpi\n    tag_2:\n      0x00\n      dup1\n      revert\n        /* \"contracts/ExampleStrings.sol\":90:128  string public myString = \"Hello World\" */\n    tag_3:\n      tag_6\n      tag_7\n      jump\t// in\n    tag_6:\n      mload(0x40)\n      tag_8\n      swap2\n      swap1\n      tag_9\n      jump\t// in\n    tag_8:\n      mload(0x40)\n      dup1\n      swap2\n      sub\n      swap1\n      return\n        /* \"contracts/ExampleStrings.sol\":236:418  function compareTwoStrings(string memory _myString) public view returns(bool){... */\n    tag_4:\n      tag_10\n      0x04\n      dup1\n      calldatasize\n      sub\n      dup2\n      add\n      swap1\n      tag_11\n      swap2\n      swap1\n      tag_12\n      jump\t// in\n    tag_11:\n      tag_13\n      jump\t// in\n    tag_10:\n      mload(0x40)\n      tag_14\n      swap2\n      swap1\n      tag_15\n      jump\t// in\n    tag_14:\n      mload(0x40)\n      dup1\n      swap2\n      sub\n      swap1\n      return\n        /* \"contracts/ExampleStrings.sol\":137:228  function setMyString(string memory _myString) public{... */\n    tag_5:\n      tag_16\n      0x04\n      dup1\n      calldatasize\n      sub\n      dup2\n      add\n      swap1\n      tag_17\n      swap2\n      swap1\n      tag_12\n      jump\t// in\n    tag_17:\n      tag_18\n      jump\t// in\n    tag_16:\n      stop\n        /* \"contracts/ExampleStrings.sol\":90:128  string public myString = \"Hello World\" */\n    tag_7:\n      0x00\n      dup1\n      sload\n      tag_19\n      swap1\n      tag_20\n      jump\t// in\n    tag_19:\n      dup1\n      0x1f\n      add\n      0x20\n      dup1\n      swap2\n      div\n      mul\n      0x20\n      add\n      mload(0x40)\n      swap1\n      dup2\n      add\n      0x40\n      mstore\n      dup1\n      swap3\n      swap2\n      swap1\n      dup2\n      dup2\n      mstore\n      0x20\n      add\n      dup3\n      dup1\n      sload\n      tag_21\n      swap1\n      tag_20\n      jump\t// in\n    tag_21:\n      dup1\n      iszero\n      tag_22\n      jumpi\n      dup1\n      0x1f\n      lt\n      tag_23\n      jumpi\n      0x0100\n      dup1\n      dup4\n      sload\n      div\n      mul\n      dup4\n      mstore\n      swap2\n      0x20\n      add\n      swap2\n      jump(tag_22)\n    tag_23:\n      dup3\n      add\n      swap2\n      swap1\n      0x00\n      mstore\n      keccak256(0x00, 0x20)\n      swap1\n    tag_24:\n      dup2\n      sload\n      dup2\n      mstore\n      swap1\n      0x01\n      add\n      swap1\n      0x20\n      add\n      dup1\n      dup4\n      gt\n      tag_24\n      jumpi\n      dup3\n      swap1\n      sub\n      0x1f\n      and\n      dup3\n      add\n      swap2\n    tag_22:\n      pop\n      pop\n      pop\n      pop\n      pop\n      dup2\n      jump\t// out\n        /* \"contracts/ExampleStrings.sol\":236:418  function compareTwoStrings(string memory _myString) public view returns(bool){... */\n    tag_13:\n        /* \"contracts/ExampleStrings.sol\":308:312  bool */\n      0x00\n        /* \"contracts/ExampleStrings.sol\":399:408  _myString */\n      dup2\n        /* \"contracts/ExampleStrings.sol\":382:409  abi.encodePacked(_myString) */\n      add(0x20, mload(0x40))\n      tag_26\n      swap2\n      swap1\n      tag_27\n      jump\t// in\n    tag_26:\n      mload(0x40)\n      0x20\n      dup2\n      dup4\n      sub\n      sub\n      dup2\n      mstore\n      swap1\n      0x40\n      mstore\n        /* \"contracts/ExampleStrings.sol\":372:410  keccak256(abi.encodePacked(_myString)) */\n      dup1\n      mload\n      swap1\n      0x20\n      add\n      keccak256\n        /* \"contracts/ExampleStrings.sol\":358:366  myString */\n      0x00\n        /* \"contracts/ExampleStrings.sol\":341:367  abi.encodePacked(myString) */\n      add(0x20, mload(0x40))\n      tag_28\n      swap2\n      swap1\n      tag_29\n      jump\t// in\n    tag_28:\n      mload(0x40)\n      0x20\n      dup2\n      dup4\n      sub\n      sub\n      dup2\n      mstore\n      swap1\n      0x40\n      mstore\n        /* \"contracts/ExampleStrings.sol\":331:368  keccak256(abi.encodePacked(myString)) */\n      dup1\n      mload\n      swap1\n      0x20\n      add\n      keccak256\n        /* \"contracts/ExampleStrings.sol\":331:410  keccak256(abi.encodePacked(myString)) == keccak256(abi.encodePacked(_myString)) */\n      eq\n        /* \"contracts/ExampleStrings.sol\":324:410  return keccak256(abi.encodePacked(myString)) == keccak256(abi.encodePacked(_myString)) */\n      swap1\n      pop\n        /* \"contracts/ExampleStrings.sol\":236:418  function compareTwoStrings(string memory _myString) public view returns(bool){... */\n      swap2\n      swap1\n      pop\n      jump\t// out\n        /* \"contracts/ExampleStrings.sol\":137:228  function setMyString(string memory _myString) public{... */\n    tag_18:\n        /* \"contracts/ExampleStrings.sol\":211:220  _myString */\n      dup1\n        /* \"contracts/ExampleStrings.sol\":200:208  myString */\n      0x00\n        /* \"contracts/ExampleStrings.sol\":200:220  myString = _myString */\n      swap1\n      dup2\n      tag_31\n      swap2\n      swap1\n      tag_32\n      jump\t// in\n    tag_31:\n      pop\n        /* \"contracts/ExampleStrings.sol\":137:228  function setMyString(string memory _myString) public{... */\n      pop\n      jump\t// out\n        /* \"#utility.yul\":7:106   */\n    tag_33:\n        /* \"#utility.yul\":59:65   */\n      0x00\n        /* \"#utility.yul\":93:98   */\n      dup2\n        /* \"#utility.yul\":87:99   */\n      mload\n        /* \"#utility.yul\":77:99   */\n      swap1\n      pop\n        /* \"#utility.yul\":7:106   */\n      swap2\n      swap1\n      pop\n      jump\t// out\n        /* \"#utility.yul\":112:281   */\n    tag_34:\n        /* \"#utility.yul\":196:207   */\n      0x00\n        /* \"#utility.yul\":230:236   */\n      dup3\n        /* \"#utility.yul\":225:228   */\n      dup3\n        /* \"#utility.yul\":218:237   */\n      mstore\n        /* \"#utility.yul\":270:274   */\n      0x20\n        /* \"#utility.yul\":265:268   */\n      dup3\n        /* \"#utility.yul\":261:275   */\n      add\n        /* \"#utility.yul\":246:275   */\n      swap1\n      pop\n        /* \"#utility.yul\":112:281   */\n      swap3\n      swap2\n      pop\n      pop\n      jump\t// out\n        /* \"#utility.yul\":287:594   */\n    tag_35:\n        /* \"#utility.yul\":355:356   */\n      0x00\n        /* \"#utility.yul\":365:478   */\n    tag_76:\n        /* \"#utility.yul\":379:385   */\n      dup4\n        /* \"#utility.yul\":376:377   */\n      dup2\n        /* \"#utility.yul\":373:386   */\n      lt\n        /* \"#utility.yul\":365:478   */\n      iszero\n      tag_78\n      jumpi\n        /* \"#utility.yul\":464:465   */\n      dup1\n        /* \"#utility.yul\":459:462   */\n      dup3\n        /* \"#utility.yul\":455:466   */\n      add\n        /* \"#utility.yul\":449:467   */\n      mload\n        /* \"#utility.yul\":445:446   */\n      dup2\n        /* \"#utility.yul\":440:443   */\n      dup5\n        /* \"#utility.yul\":436:447   */\n      add\n        /* \"#utility.yul\":429:468   */\n      mstore\n        /* \"#utility.yul\":401:403   */\n      0x20\n        /* \"#utility.yul\":398:399   */\n      dup2\n        /* \"#utility.yul\":394:404   */\n      add\n        /* \"#utility.yul\":389:404   */\n      swap1\n      pop\n        /* \"#utility.yul\":365:478   */\n      jump(tag_76)\n    tag_78:\n        /* \"#utility.yul\":496:502   */\n      dup4\n        /* \"#utility.yul\":493:494   */\n      dup2\n        /* \"#utility.yul\":490:503   */\n      gt\n        /* \"#utility.yul\":487:588   */\n      iszero\n      tag_79\n      jumpi\n        /* \"#utility.yul\":576:577   */\n      0x00\n        /* \"#utility.yul\":567:573   */\n      dup5\n        /* \"#utility.yul\":562:565   */\n      dup5\n        /* \"#utility.yul\":558:574   */\n      add\n        /* \"#utility.yul\":551:578   */\n      mstore\n        /* \"#utility.yul\":487:588   */\n    tag_79:\n        /* \"#utility.yul\":336:594   */\n      pop\n        /* \"#utility.yul\":287:594   */\n      pop\n      pop\n      pop\n      jump\t// out\n        /* \"#utility.yul\":600:702   */\n    tag_36:\n        /* \"#utility.yul\":641:647   */\n      0x00\n        /* \"#utility.yul\":692:694   */\n      0x1f\n        /* \"#utility.yul\":688:695   */\n      not\n        /* \"#utility.yul\":683:685   */\n      0x1f\n        /* \"#utility.yul\":676:681   */\n      dup4\n        /* \"#utility.yul\":672:686   */\n      add\n        /* \"#utility.yul\":668:696   */\n      and\n        /* \"#utility.yul\":658:696   */\n      swap1\n      pop\n        /* \"#utility.yul\":600:702   */\n      swap2\n      swap1\n      pop\n      jump\t// out\n        /* \"#utility.yul\":708:1072   */\n    tag_37:\n        /* \"#utility.yul\":796:799   */\n      0x00\n        /* \"#utility.yul\":824:863   */\n      tag_82\n        /* \"#utility.yul\":857:862   */\n      dup3\n        /* \"#utility.yul\":824:863   */\n      tag_33\n      jump\t// in\n    tag_82:\n        /* \"#utility.yul\":879:950   */\n      tag_83\n        /* \"#utility.yul\":943:949   */\n      dup2\n        /* \"#utility.yul\":938:941   */\n      dup6\n        /* \"#utility.yul\":879:950   */\n      tag_34\n      jump\t// in\n    tag_83:\n        /* \"#utility.yul\":872:950   */\n      swap4\n      pop\n        /* \"#utility.yul\":959:1011   */\n      tag_84\n        /* \"#utility.yul\":1004:1010   */\n      dup2\n        /* \"#utility.yul\":999:1002   */\n      dup6\n        /* \"#utility.yul\":992:996   */\n      0x20\n        /* \"#utility.yul\":985:990   */\n      dup7\n        /* \"#utility.yul\":981:997   */\n      add\n        /* \"#utility.yul\":959:1011   */\n      tag_35\n      jump\t// in\n    tag_84:\n        /* \"#utility.yul\":1036:1065   */\n      tag_85\n        /* \"#utility.yul\":1058:1064   */\n      dup2\n        /* \"#utility.yul\":1036:1065   */\n      tag_36\n      jump\t// in\n    tag_85:\n        /* \"#utility.yul\":1031:1034   */\n      dup5\n        /* \"#utility.yul\":1027:1066   */\n      add\n        /* \"#utility.yul\":1020:1066   */\n      swap2\n      pop\n        /* \"#utility.yul\":800:1072   */\n      pop\n        /* \"#utility.yul\":708:1072   */\n      swap3\n      swap2\n      pop\n      pop\n      jump\t// out\n        /* \"#utility.yul\":1078:1391   */\n    tag_9:\n        /* \"#utility.yul\":1191:1195   */\n      0x00\n        /* \"#utility.yul\":1229:1231   */\n      0x20\n        /* \"#utility.yul\":1218:1227   */\n      dup3\n        /* \"#utility.yul\":1214:1232   */\n      add\n        /* \"#utility.yul\":1206:1232   */\n      swap1\n      pop\n        /* \"#utility.yul\":1278:1287   */\n      dup2\n        /* \"#utility.yul\":1272:1276   */\n      dup2\n        /* \"#utility.yul\":1268:1288   */\n      sub\n        /* \"#utility.yul\":1264:1265   */\n      0x00\n        /* \"#utility.yul\":1253:1262   */\n      dup4\n        /* \"#utility.yul\":1249:1266   */\n      add\n        /* \"#utility.yul\":1242:1289   */\n      mstore\n        /* \"#utility.yul\":1306:1384   */\n      tag_87\n        /* \"#utility.yul\":1379:1383   */\n      dup2\n        /* \"#utility.yul\":1370:1376   */\n      dup5\n        /* \"#utility.yul\":1306:1384   */\n      tag_37\n      jump\t// in\n    tag_87:\n        /* \"#utility.yul\":1298:1384   */\n      swap1\n      pop\n        /* \"#utility.yul\":1078:1391   */\n      swap3\n      swap2\n      pop\n      pop\n      jump\t// out\n        /* \"#utility.yul\":1397:1472   */\n    tag_38:\n        /* \"#utility.yul\":1430:1436   */\n      0x00\n        /* \"#utility.yul\":1463:1465   */\n      0x40\n        /* \"#utility.yul\":1457:1466   */\n      mload\n        /* \"#utility.yul\":1447:1466   */\n      swap1\n      pop\n        /* \"#utility.yul\":1397:1472   */\n      swap1\n      jump\t// out\n        /* \"#utility.yul\":1478:1595   */\n    tag_39:\n        /* \"#utility.yul\":1587:1588   */\n      0x00\n        /* \"#utility.yul\":1584:1585   */\n      dup1\n        /* \"#utility.yul\":1577:1589   */\n      revert\n        /* \"#utility.yul\":1601:1718   */\n    tag_40:\n        /* \"#utility.yul\":1710:1711   */\n      0x00\n        /* \"#utility.yul\":1707:1708   */\n      dup1\n        /* \"#utility.yul\":1700:1712   */\n      revert\n        /* \"#utility.yul\":1724:1841   */\n    tag_41:\n        /* \"#utility.yul\":1833:1834   */\n      0x00\n        /* \"#utility.yul\":1830:1831   */\n      dup1\n        /* \"#utility.yul\":1823:1835   */\n      revert\n        /* \"#utility.yul\":1847:1964   */\n    tag_42:\n        /* \"#utility.yul\":1956:1957   */\n      0x00\n        /* \"#utility.yul\":1953:1954   */\n      dup1\n        /* \"#utility.yul\":1946:1958   */\n      revert\n        /* \"#utility.yul\":1970:2150   */\n    tag_43:\n        /* \"#utility.yul\":2018:2095   */\n      0x4e487b7100000000000000000000000000000000000000000000000000000000\n        /* \"#utility.yul\":2015:2016   */\n      0x00\n        /* \"#utility.yul\":2008:2096   */\n      mstore\n        /* \"#utility.yul\":2115:2119   */\n      0x41\n        /* \"#utility.yul\":2112:2113   */\n      0x04\n        /* \"#utility.yul\":2105:2120   */\n      mstore\n        /* \"#utility.yul\":2139:2143   */\n      0x24\n        /* \"#utility.yul\":2136:2137   */\n      0x00\n        /* \"#utility.yul\":2129:2144   */\n      revert\n        /* \"#utility.yul\":2156:2437   */\n    tag_44:\n        /* \"#utility.yul\":2239:2266   */\n      tag_95\n        /* \"#utility.yul\":2261:2265   */\n      dup3\n        /* \"#utility.yul\":2239:2266   */\n      tag_36\n      jump\t// in\n    tag_95:\n        /* \"#utility.yul\":2231:2237   */\n      dup2\n        /* \"#utility.yul\":2227:2267   */\n      add\n        /* \"#utility.yul\":2369:2375   */\n      dup2\n        /* \"#utility.yul\":2357:2367   */\n      dup2\n        /* \"#utility.yul\":2354:2376   */\n      lt\n        /* \"#utility.yul\":2333:2351   */\n      0xffffffffffffffff\n        /* \"#utility.yul\":2321:2331   */\n      dup3\n        /* \"#utility.yul\":2318:2352   */\n      gt\n        /* \"#utility.yul\":2315:2377   */\n      or\n        /* \"#utility.yul\":2312:2400   */\n      iszero\n      tag_96\n      jumpi\n        /* \"#utility.yul\":2380:2398   */\n      tag_97\n      tag_43\n      jump\t// in\n    tag_97:\n        /* \"#utility.yul\":2312:2400   */\n    tag_96:\n        /* \"#utility.yul\":2420:2430   */\n      dup1\n        /* \"#utility.yul\":2416:2418   */\n      0x40\n        /* \"#utility.yul\":2409:2431   */\n      mstore\n        /* \"#utility.yul\":2199:2437   */\n      pop\n        /* \"#utility.yul\":2156:2437   */\n      pop\n      pop\n      jump\t// out\n        /* \"#utility.yul\":2443:2572   */\n    tag_45:\n        /* \"#utility.yul\":2477:2483   */\n      0x00\n        /* \"#utility.yul\":2504:2524   */\n      tag_99\n      tag_38\n      jump\t// in\n    tag_99:\n        /* \"#utility.yul\":2494:2524   */\n      swap1\n      pop\n        /* \"#utility.yul\":2533:2566   */\n      tag_100\n        /* \"#utility.yul\":2561:2565   */\n      dup3\n        /* \"#utility.yul\":2553:2559   */\n      dup3\n        /* \"#utility.yul\":2533:2566   */\n      tag_44\n      jump\t// in\n    tag_100:\n        /* \"#utility.yul\":2443:2572   */\n      swap2\n      swap1\n      pop\n      jump\t// out\n        /* \"#utility.yul\":2578:2886   */\n    tag_46:\n        /* \"#utility.yul\":2640:2644   */\n      0x00\n        /* \"#utility.yul\":2730:2748   */\n      0xffffffffffffffff\n        /* \"#utility.yul\":2722:2728   */\n      dup3\n        /* \"#utility.yul\":2719:2749   */\n      gt\n        /* \"#utility.yul\":2716:2772   */\n      iszero\n      tag_102\n      jumpi\n        /* \"#utility.yul\":2752:2770   */\n      tag_103\n      tag_43\n      jump\t// in\n    tag_103:\n        /* \"#utility.yul\":2716:2772   */\n    tag_102:\n        /* \"#utility.yul\":2790:2819   */\n      tag_104\n        /* \"#utility.yul\":2812:2818   */\n      dup3\n        /* \"#utility.yul\":2790:2819   */\n      tag_36\n      jump\t// in\n    tag_104:\n        /* \"#utility.yul\":2782:2819   */\n      swap1\n      pop\n        /* \"#utility.yul\":2874:2878   */\n      0x20\n        /* \"#utility.yul\":2868:2872   */\n      dup2\n        /* \"#utility.yul\":2864:2879   */\n      add\n        /* \"#utility.yul\":2856:2879   */\n      swap1\n      pop\n        /* \"#utility.yul\":2578:2886   */\n      swap2\n      swap1\n      pop\n      jump\t// out\n        /* \"#utility.yul\":2892:3046   */\n    tag_47:\n        /* \"#utility.yul\":2976:2982   */\n      dup3\n        /* \"#utility.yul\":2971:2974   */\n      dup2\n        /* \"#utility.yul\":2966:2969   */\n      dup4\n        /* \"#utility.yul\":2953:2983   */\n      calldatacopy\n        /* \"#utility.yul\":3038:3039   */\n      0x00\n        /* \"#utility.yul\":3029:3035   */\n      dup4\n        /* \"#utility.yul\":3024:3027   */\n      dup4\n        /* \"#utility.yul\":3020:3036   */\n      add\n        /* \"#utility.yul\":3013:3040   */\n      mstore\n        /* \"#utility.yul\":2892:3046   */\n      pop\n      pop\n      pop\n      jump\t// out\n        /* \"#utility.yul\":3052:3464   */\n    tag_48:\n        /* \"#utility.yul\":3130:3135   */\n      0x00\n        /* \"#utility.yul\":3155:3221   */\n      tag_107\n        /* \"#utility.yul\":3171:3220   */\n      tag_108\n        /* \"#utility.yul\":3213:3219   */\n      dup5\n        /* \"#utility.yul\":3171:3220   */\n      tag_46\n      jump\t// in\n    tag_108:\n        /* \"#utility.yul\":3155:3221   */\n      tag_45\n      jump\t// in\n    tag_107:\n        /* \"#utility.yul\":3146:3221   */\n      swap1\n      pop\n        /* \"#utility.yul\":3244:3250   */\n      dup3\n        /* \"#utility.yul\":3237:3242   */\n      dup2\n        /* \"#utility.yul\":3230:3251   */\n      mstore\n        /* \"#utility.yul\":3282:3286   */\n      0x20\n        /* \"#utility.yul\":3275:3280   */\n      dup2\n        /* \"#utility.yul\":3271:3287   */\n      add\n        /* \"#utility.yul\":3320:3323   */\n      dup5\n        /* \"#utility.yul\":3311:3317   */\n      dup5\n        /* \"#utility.yul\":3306:3309   */\n      dup5\n        /* \"#utility.yul\":3302:3318   */\n      add\n        /* \"#utility.yul\":3299:3324   */\n      gt\n        /* \"#utility.yul\":3296:3408   */\n      iszero\n      tag_109\n      jumpi\n        /* \"#utility.yul\":3327:3406   */\n      tag_110\n      tag_42\n      jump\t// in\n    tag_110:\n        /* \"#utility.yul\":3296:3408   */\n    tag_109:\n        /* \"#utility.yul\":3417:3458   */\n      tag_111\n        /* \"#utility.yul\":3451:3457   */\n      dup5\n        /* \"#utility.yul\":3446:3449   */\n      dup3\n        /* \"#utility.yul\":3441:3444   */\n      dup6\n        /* \"#utility.yul\":3417:3458   */\n      tag_47\n      jump\t// in\n    tag_111:\n        /* \"#utility.yul\":3136:3464   */\n      pop\n        /* \"#utility.yul\":3052:3464   */\n      swap4\n      swap3\n      pop\n      pop\n      pop\n      jump\t// out\n        /* \"#utility.yul\":3484:3824   */\n    tag_49:\n        /* \"#utility.yul\":3540:3545   */\n      0x00\n        /* \"#utility.yul\":3589:3592   */\n      dup3\n        /* \"#utility.yul\":3582:3586   */\n      0x1f\n        /* \"#utility.yul\":3574:3580   */\n      dup4\n        /* \"#utility.yul\":3570:3587   */\n      add\n        /* \"#utility.yul\":3566:3593   */\n      slt\n        /* \"#utility.yul\":3556:3678   */\n      tag_113\n      jumpi\n        /* \"#utility.yul\":3597:3676   */\n      tag_114\n      tag_41\n      jump\t// in\n    tag_114:\n        /* \"#utility.yul\":3556:3678   */\n    tag_113:\n        /* \"#utility.yul\":3714:3720   */\n      dup2\n        /* \"#utility.yul\":3701:3721   */\n      calldataload\n        /* \"#utility.yul\":3739:3818   */\n      tag_115\n        /* \"#utility.yul\":3814:3817   */\n      dup5\n        /* \"#utility.yul\":3806:3812   */\n      dup3\n        /* \"#utility.yul\":3799:3803   */\n      0x20\n        /* \"#utility.yul\":3791:3797   */\n      dup7\n        /* \"#utility.yul\":3787:3804   */\n      add\n        /* \"#utility.yul\":3739:3818   */\n      tag_48\n      jump\t// in\n    tag_115:\n        /* \"#utility.yul\":3730:3818   */\n      swap2\n      pop\n        /* \"#utility.yul\":3546:3824   */\n      pop\n        /* \"#utility.yul\":3484:3824   */\n      swap3\n      swap2\n      pop\n      pop\n      jump\t// out\n        /* \"#utility.yul\":3830:4339   */\n    tag_12:\n        /* \"#utility.yul\":3899:3905   */\n      0x00\n        /* \"#utility.yul\":3948:3950   */\n      0x20\n        /* \"#utility.yul\":3936:3945   */\n      dup3\n        /* \"#utility.yul\":3927:3934   */\n      dup5\n        /* \"#utility.yul\":3923:3946   */\n      sub\n        /* \"#utility.yul\":3919:3951   */\n      slt\n        /* \"#utility.yul\":3916:4035   */\n      iszero\n      tag_117\n      jumpi\n        /* \"#utility.yul\":3954:4033   */\n      tag_118\n      tag_39\n      jump\t// in\n    tag_118:\n        /* \"#utility.yul\":3916:4035   */\n    tag_117:\n        /* \"#utility.yul\":4102:4103   */\n      0x00\n        /* \"#utility.yul\":4091:4100   */\n      dup3\n        /* \"#utility.yul\":4087:4104   */\n      add\n        /* \"#utility.yul\":4074:4105   */\n      calldataload\n        /* \"#utility.yul\":4132:4150   */\n      0xffffffffffffffff\n        /* \"#utility.yul\":4124:4130   */\n      dup2\n        /* \"#utility.yul\":4121:4151   */\n      gt\n        /* \"#utility.yul\":4118:4235   */\n      iszero\n      tag_119\n      jumpi\n        /* \"#utility.yul\":4154:4233   */\n      tag_120\n      tag_40\n      jump\t// in\n    tag_120:\n        /* \"#utility.yul\":4118:4235   */\n    tag_119:\n        /* \"#utility.yul\":4259:4322   */\n      tag_121\n        /* \"#utility.yul\":4314:4321   */\n      dup5\n        /* \"#utility.yul\":4305:4311   */\n      dup3\n        /* \"#utility.yul\":4294:4303   */\n      dup6\n        /* \"#utility.yul\":4290:4312   */\n      add\n        /* \"#utility.yul\":4259:4322   */\n      tag_49\n      jump\t// in\n    tag_121:\n        /* \"#utility.yul\":4249:4322   */\n      swap2\n      pop\n        /* \"#utility.yul\":4045:4332   */\n      pop\n        /* \"#utility.yul\":3830:4339   */\n      swap3\n      swap2\n      pop\n      pop\n      jump\t// out\n        /* \"#utility.yul\":4345:4435   */\n    tag_50:\n        /* \"#utility.yul\":4379:4386   */\n      0x00\n        /* \"#utility.yul\":4422:4427   */\n      dup2\n        /* \"#utility.yul\":4415:4428   */\n      iszero\n        /* \"#utility.yul\":4408:4429   */\n      iszero\n        /* \"#utility.yul\":4397:4429   */\n      swap1\n      pop\n        /* \"#utility.yul\":4345:4435   */\n      swap2\n      swap1\n      pop\n      jump\t// out\n        /* \"#utility.yul\":4441:4550   */\n    tag_51:\n        /* \"#utility.yul\":4522:4543   */\n      tag_124\n        /* \"#utility.yul\":4537:4542   */\n      dup2\n        /* \"#utility.yul\":4522:4543   */\n      tag_50\n      jump\t// in\n    tag_124:\n        /* \"#utility.yul\":4517:4520   */\n      dup3\n        /* \"#utility.yul\":4510:4544   */\n      mstore\n        /* \"#utility.yul\":4441:4550   */\n      pop\n      pop\n      jump\t// out\n        /* \"#utility.yul\":4556:4766   */\n    tag_15:\n        /* \"#utility.yul\":4643:4647   */\n      0x00\n        /* \"#utility.yul\":4681:4683   */\n      0x20\n        /* \"#utility.yul\":4670:4679   */\n      dup3\n        /* \"#utility.yul\":4666:4684   */\n      add\n        /* \"#utility.yul\":4658:4684   */\n      swap1\n      pop\n        /* \"#utility.yul\":4694:4759   */\n      tag_126\n        /* \"#utility.yul\":4756:4757   */\n      0x00\n        /* \"#utility.yul\":4745:4754   */\n      dup4\n        /* \"#utility.yul\":4741:4758   */\n      add\n        /* \"#utility.yul\":4732:4738   */\n      dup5\n        /* \"#utility.yul\":4694:4759   */\n      tag_51\n      jump\t// in\n    tag_126:\n        /* \"#utility.yul\":4556:4766   */\n      swap3\n      swap2\n      pop\n      pop\n      jump\t// out\n        /* \"#utility.yul\":4772:4952   */\n    tag_52:\n        /* \"#utility.yul\":4820:4897   */\n      0x4e487b7100000000000000000000000000000000000000000000000000000000\n        /* \"#utility.yul\":4817:4818   */\n      0x00\n        /* \"#utility.yul\":4810:4898   */\n      mstore\n        /* \"#utility.yul\":4917:4921   */\n      0x22\n        /* \"#utility.yul\":4914:4915   */\n      0x04\n        /* \"#utility.yul\":4907:4922   */\n      mstore\n        /* \"#utility.yul\":4941:4945   */\n      0x24\n        /* \"#utility.yul\":4938:4939   */\n      0x00\n        /* \"#utility.yul\":4931:4946   */\n      revert\n        /* \"#utility.yul\":4958:5278   */\n    tag_20:\n        /* \"#utility.yul\":5002:5008   */\n      0x00\n        /* \"#utility.yul\":5039:5040   */\n      0x02\n        /* \"#utility.yul\":5033:5037   */\n      dup3\n        /* \"#utility.yul\":5029:5041   */\n      div\n        /* \"#utility.yul\":5019:5041   */\n      swap1\n      pop\n        /* \"#utility.yul\":5086:5087   */\n      0x01\n        /* \"#utility.yul\":5080:5084   */\n      dup3\n        /* \"#utility.yul\":5076:5088   */\n      and\n        /* \"#utility.yul\":5107:5125   */\n      dup1\n        /* \"#utility.yul\":5097:5178   */\n      tag_129\n      jumpi\n        /* \"#utility.yul\":5163:5167   */\n      0x7f\n        /* \"#utility.yul\":5155:5161   */\n      dup3\n        /* \"#utility.yul\":5151:5168   */\n      and\n        /* \"#utility.yul\":5141:5168   */\n      swap2\n      pop\n        /* \"#utility.yul\":5097:5178   */\n    tag_129:\n        /* \"#utility.yul\":5225:5227   */\n      0x20\n        /* \"#utility.yul\":5217:5223   */\n      dup3\n        /* \"#utility.yul\":5214:5228   */\n      lt\n        /* \"#utility.yul\":5194:5212   */\n      dup2\n        /* \"#utility.yul\":5191:5229   */\n      sub\n        /* \"#utility.yul\":5188:5272   */\n      tag_130\n      jumpi\n        /* \"#utility.yul\":5244:5262   */\n      tag_131\n      tag_52\n      jump\t// in\n    tag_131:\n        /* \"#utility.yul\":5188:5272   */\n    tag_130:\n        /* \"#utility.yul\":5009:5278   */\n      pop\n        /* \"#utility.yul\":4958:5278   */\n      swap2\n      swap1\n      pop\n      jump\t// out\n        /* \"#utility.yul\":5284:5432   */\n    tag_53:\n        /* \"#utility.yul\":5386:5397   */\n      0x00\n        /* \"#utility.yul\":5423:5426   */\n      dup2\n        /* \"#utility.yul\":5408:5426   */\n      swap1\n      pop\n        /* \"#utility.yul\":5284:5432   */\n      swap3\n      swap2\n      pop\n      pop\n      jump\t// out\n        /* \"#utility.yul\":5438:5815   */\n    tag_54:\n        /* \"#utility.yul\":5544:5547   */\n      0x00\n        /* \"#utility.yul\":5572:5611   */\n      tag_134\n        /* \"#utility.yul\":5605:5610   */\n      dup3\n        /* \"#utility.yul\":5572:5611   */\n      tag_33\n      jump\t// in\n    tag_134:\n        /* \"#utility.yul\":5627:5716   */\n      tag_135\n        /* \"#utility.yul\":5709:5715   */\n      dup2\n        /* \"#utility.yul\":5704:5707   */\n      dup6\n        /* \"#utility.yul\":5627:5716   */\n      tag_53\n      jump\t// in\n    tag_135:\n        /* \"#utility.yul\":5620:5716   */\n      swap4\n      pop\n        /* \"#utility.yul\":5725:5777   */\n      tag_136\n        /* \"#utility.yul\":5770:5776   */\n      dup2\n        /* \"#utility.yul\":5765:5768   */\n      dup6\n        /* \"#utility.yul\":5758:5762   */\n      0x20\n        /* \"#utility.yul\":5751:5756   */\n      dup7\n        /* \"#utility.yul\":5747:5763   */\n      add\n        /* \"#utility.yul\":5725:5777   */\n      tag_35\n      jump\t// in\n    tag_136:\n        /* \"#utility.yul\":5802:5808   */\n      dup1\n        /* \"#utility.yul\":5797:5800   */\n      dup5\n        /* \"#utility.yul\":5793:5809   */\n      add\n        /* \"#utility.yul\":5786:5809   */\n      swap2\n      pop\n        /* \"#utility.yul\":5548:5815   */\n      pop\n        /* \"#utility.yul\":5438:5815   */\n      swap3\n      swap2\n      pop\n      pop\n      jump\t// out\n        /* \"#utility.yul\":5821:6096   */\n    tag_27:\n        /* \"#utility.yul\":5953:5956   */\n      0x00\n        /* \"#utility.yul\":5975:6070   */\n      tag_138\n        /* \"#utility.yul\":6066:6069   */\n      dup3\n        /* \"#utility.yul\":6057:6063   */\n      dup5\n        /* \"#utility.yul\":5975:6070   */\n      tag_54\n      jump\t// in\n    tag_138:\n        /* \"#utility.yul\":5968:6070   */\n      swap2\n      pop\n        /* \"#utility.yul\":6087:6090   */\n      dup2\n        /* \"#utility.yul\":6080:6090   */\n      swap1\n      pop\n        /* \"#utility.yul\":5821:6096   */\n      swap3\n      swap2\n      pop\n      pop\n      jump\t// out\n        /* \"#utility.yul\":6102:6243   */\n    tag_55:\n        /* \"#utility.yul\":6151:6155   */\n      0x00\n        /* \"#utility.yul\":6174:6177   */\n      dup2\n        /* \"#utility.yul\":6166:6177   */\n      swap1\n      pop\n        /* \"#utility.yul\":6197:6200   */\n      dup2\n        /* \"#utility.yul\":6194:6195   */\n      0x00\n        /* \"#utility.yul\":6187:6201   */\n      mstore\n        /* \"#utility.yul\":6231:6235   */\n      0x20\n        /* \"#utility.yul\":6228:6229   */\n      0x00\n        /* \"#utility.yul\":6218:6236   */\n      keccak256\n        /* \"#utility.yul\":6210:6236   */\n      swap1\n      pop\n        /* \"#utility.yul\":6102:6243   */\n      swap2\n      swap1\n      pop\n      jump\t// out\n        /* \"#utility.yul\":6273:7147   */\n    tag_56:\n        /* \"#utility.yul\":6376:6379   */\n      0x00\n        /* \"#utility.yul\":6413:6418   */\n      dup2\n        /* \"#utility.yul\":6407:6419   */\n      sload\n        /* \"#utility.yul\":6442:6478   */\n      tag_141\n        /* \"#utility.yul\":6468:6477   */\n      dup2\n        /* \"#utility.yul\":6442:6478   */\n      tag_20\n      jump\t// in\n    tag_141:\n        /* \"#utility.yul\":6494:6583   */\n      tag_142\n        /* \"#utility.yul\":6576:6582   */\n      dup2\n        /* \"#utility.yul\":6571:6574   */\n      dup7\n        /* \"#utility.yul\":6494:6583   */\n      tag_53\n      jump\t// in\n    tag_142:\n        /* \"#utility.yul\":6487:6583   */\n      swap5\n      pop\n        /* \"#utility.yul\":6614:6615   */\n      0x01\n        /* \"#utility.yul\":6603:6612   */\n      dup3\n        /* \"#utility.yul\":6599:6616   */\n      and\n        /* \"#utility.yul\":6630:6631   */\n      0x00\n        /* \"#utility.yul\":6625:6791   */\n      dup2\n      eq\n      tag_144\n      jumpi\n        /* \"#utility.yul\":6805:6806   */\n      0x01\n        /* \"#utility.yul\":6800:7141   */\n      dup2\n      eq\n      tag_145\n      jumpi\n        /* \"#utility.yul\":6592:7141   */\n      jump(tag_143)\n        /* \"#utility.yul\":6625:6791   */\n    tag_144:\n        /* \"#utility.yul\":6709:6713   */\n      0xff\n        /* \"#utility.yul\":6705:6714   */\n      not\n        /* \"#utility.yul\":6694:6703   */\n      dup4\n        /* \"#utility.yul\":6690:6715   */\n      and\n        /* \"#utility.yul\":6685:6688   */\n      dup7\n        /* \"#utility.yul\":6678:6716   */\n      mstore\n        /* \"#utility.yul\":6771:6777   */\n      dup2\n        /* \"#utility.yul\":6764:6778   */\n      iszero\n        /* \"#utility.yul\":6757:6779   */\n      iszero\n        /* \"#utility.yul\":6749:6755   */\n      dup3\n        /* \"#utility.yul\":6745:6780   */\n      mul\n        /* \"#utility.yul\":6740:6743   */\n      dup7\n        /* \"#utility.yul\":6736:6781   */\n      add\n        /* \"#utility.yul\":6729:6781   */\n      swap4\n      pop\n        /* \"#utility.yul\":6625:6791   */\n      jump(tag_143)\n        /* \"#utility.yul\":6800:7141   */\n    tag_145:\n        /* \"#utility.yul\":6867:6905   */\n      tag_146\n        /* \"#utility.yul\":6899:6904   */\n      dup6\n        /* \"#utility.yul\":6867:6905   */\n      tag_55\n      jump\t// in\n    tag_146:\n        /* \"#utility.yul\":6927:6928   */\n      0x00\n        /* \"#utility.yul\":6941:7095   */\n    tag_147:\n        /* \"#utility.yul\":6955:6961   */\n      dup4\n        /* \"#utility.yul\":6952:6953   */\n      dup2\n        /* \"#utility.yul\":6949:6962   */\n      lt\n        /* \"#utility.yul\":6941:7095   */\n      iszero\n      tag_149\n      jumpi\n        /* \"#utility.yul\":7029:7036   */\n      dup2\n        /* \"#utility.yul\":7023:7037   */\n      sload\n        /* \"#utility.yul\":7019:7020   */\n      dup2\n        /* \"#utility.yul\":7014:7017   */\n      dup10\n        /* \"#utility.yul\":7010:7021   */\n      add\n        /* \"#utility.yul\":7003:7038   */\n      mstore\n        /* \"#utility.yul\":7079:7080   */\n      0x01\n        /* \"#utility.yul\":7070:7077   */\n      dup3\n        /* \"#utility.yul\":7066:7081   */\n      add\n        /* \"#utility.yul\":7055:7081   */\n      swap2\n      pop\n        /* \"#utility.yul\":6977:6981   */\n      0x20\n        /* \"#utility.yul\":6974:6975   */\n      dup2\n        /* \"#utility.yul\":6970:6982   */\n      add\n        /* \"#utility.yul\":6965:6982   */\n      swap1\n      pop\n        /* \"#utility.yul\":6941:7095   */\n      jump(tag_147)\n    tag_149:\n        /* \"#utility.yul\":7124:7130   */\n      dup4\n        /* \"#utility.yul\":7119:7122   */\n      dup9\n        /* \"#utility.yul\":7115:7131   */\n      add\n        /* \"#utility.yul\":7108:7131   */\n      swap6\n      pop\n        /* \"#utility.yul\":6807:7141   */\n      pop\n      pop\n        /* \"#utility.yul\":6592:7141   */\n    tag_143:\n      pop\n        /* \"#utility.yul\":6380:7147   */\n      pop\n      pop\n        /* \"#utility.yul\":6273:7147   */\n      swap3\n      swap2\n      pop\n      pop\n      jump\t// out\n        /* \"#utility.yul\":7153:7422   */\n    tag_29:\n        /* \"#utility.yul\":7282:7285   */\n      0x00\n        /* \"#utility.yul\":7304:7396   */\n      tag_151\n        /* \"#utility.yul\":7392:7395   */\n      dup3\n        /* \"#utility.yul\":7383:7389   */\n      dup5\n        /* \"#utility.yul\":7304:7396   */\n      tag_56\n      jump\t// in\n    tag_151:\n        /* \"#utility.yul\":7297:7396   */\n      swap2\n      pop\n        /* \"#utility.yul\":7413:7416   */\n      dup2\n        /* \"#utility.yul\":7406:7416   */\n      swap1\n      pop\n        /* \"#utility.yul\":7153:7422   */\n      swap3\n      swap2\n      pop\n      pop\n      jump\t// out\n        /* \"#utility.yul\":7428:7521   */\n    tag_57:\n        /* \"#utility.yul\":7465:7471   */\n      0x00\n        /* \"#utility.yul\":7512:7514   */\n      0x20\n        /* \"#utility.yul\":7507:7509   */\n      0x1f\n        /* \"#utility.yul\":7500:7505   */\n      dup4\n        /* \"#utility.yul\":7496:7510   */\n      add\n        /* \"#utility.yul\":7492:7515   */\n      div\n        /* \"#utility.yul\":7482:7515   */\n      swap1\n      pop\n        /* \"#utility.yul\":7428:7521   */\n      swap2\n      swap1\n      pop\n      jump\t// out\n        /* \"#utility.yul\":7527:7634   */\n    tag_58:\n        /* \"#utility.yul\":7571:7579   */\n      0x00\n        /* \"#utility.yul\":7621:7626   */\n      dup3\n        /* \"#utility.yul\":7615:7619   */\n      dup3\n        /* \"#utility.yul\":7611:7627   */\n      shl\n        /* \"#utility.yul\":7590:7627   */\n      swap1\n      pop\n        /* \"#utility.yul\":7527:7634   */\n      swap3\n      swap2\n      pop\n      pop\n      jump\t// out\n        /* \"#utility.yul\":7640:8033   */\n    tag_59:\n        /* \"#utility.yul\":7709:7715   */\n      0x00\n        /* \"#utility.yul\":7759:7760   */\n      0x08\n        /* \"#utility.yul\":7747:7757   */\n      dup4\n        /* \"#utility.yul\":7743:7761   */\n      mul\n        /* \"#utility.yul\":7782:7879   */\n      tag_155\n        /* \"#utility.yul\":7812:7878   */\n      0xffffffffffffffffffffffffffffffffffffffffffffffffffffffffffffffff\n        /* \"#utility.yul\":7801:7810   */\n      dup3\n        /* \"#utility.yul\":7782:7879   */\n      tag_58\n      jump\t// in\n    tag_155:\n        /* \"#utility.yul\":7900:7939   */\n      tag_156\n        /* \"#utility.yul\":7930:7938   */\n      dup7\n        /* \"#utility.yul\":7919:7928   */\n      dup4\n        /* \"#utility.yul\":7900:7939   */\n      tag_58\n      jump\t// in\n    tag_156:\n        /* \"#utility.yul\":7888:7939   */\n      swap6\n      pop\n        /* \"#utility.yul\":7972:7976   */\n      dup1\n        /* \"#utility.yul\":7968:7977   */\n      not\n        /* \"#utility.yul\":7961:7966   */\n      dup5\n        /* \"#utility.yul\":7957:7978   */\n      and\n        /* \"#utility.yul\":7948:7978   */\n      swap4\n      pop\n        /* \"#utility.yul\":8021:8025   */\n      dup1\n        /* \"#utility.yul\":8011:8019   */\n      dup7\n        /* \"#utility.yul\":8007:8026   */\n      and\n        /* \"#utility.yul\":8000:8005   */\n      dup5\n        /* \"#utility.yul\":7997:8027   */\n      or\n        /* \"#utility.yul\":7987:8027   */\n      swap3\n      pop\n        /* \"#utility.yul\":7716:8033   */\n      pop\n      pop\n        /* \"#utility.yul\":7640:8033   */\n      swap4\n      swap3\n      pop\n      pop\n      pop\n      jump\t// out\n        /* \"#utility.yul\":8039:8116   */\n    tag_60:\n        /* \"#utility.yul\":8076:8083   */\n      0x00\n        /* \"#utility.yul\":8105:8110   */\n      dup2\n        /* \"#utility.yul\":8094:8110   */\n      swap1\n      pop\n        /* \"#utility.yul\":8039:8116   */\n      swap2\n      swap1\n      pop\n      jump\t// out\n        /* \"#utility.yul\":8122:8182   */\n    tag_61:\n        /* \"#utility.yul\":8150:8153   */\n      0x00\n        /* \"#utility.yul\":8171:8176   */\n      dup2\n        /* \"#utility.yul\":8164:8176   */\n      swap1\n      pop\n        /* \"#utility.yul\":8122:8182   */\n      swap2\n      swap1\n      pop\n      jump\t// out\n        /* \"#utility.yul\":8188:8330   */\n    tag_62:\n        /* \"#utility.yul\":8238:8247   */\n      0x00\n        /* \"#utility.yul\":8271:8324   */\n      tag_160\n        /* \"#utility.yul\":8289:8323   */\n      tag_161\n        /* \"#utility.yul\":8298:8322   */\n      tag_162\n        /* \"#utility.yul\":8316:8321   */\n      dup5\n        /* \"#utility.yul\":8298:8322   */\n      tag_60\n      jump\t// in\n    tag_162:\n        /* \"#utility.yul\":8289:8323   */\n      tag_61\n      jump\t// in\n    tag_161:\n        /* \"#utility.yul\":8271:8324   */\n      tag_60\n      jump\t// in\n    tag_160:\n        /* \"#utility.yul\":8258:8324   */\n      swap1\n      pop\n        /* \"#utility.yul\":8188:8330   */\n      swap2\n      swap1\n      pop\n      jump\t// out\n        /* \"#utility.yul\":8336:8411   */\n    tag_63:\n        /* \"#utility.yul\":8379:8382   */\n      0x00\n        /* \"#utility.yul\":8400:8405   */\n      dup2\n        /* \"#utility.yul\":8393:8405   */\n      swap1\n      pop\n        /* \"#utility.yul\":8336:8411   */\n      swap2\n      swap1\n      pop\n      jump\t// out\n        /* \"#utility.yul\":8417:8686   */\n    tag_64:\n        /* \"#utility.yul\":8527:8566   */\n      tag_165\n        /* \"#utility.yul\":8558:8565   */\n      dup4\n        /* \"#utility.yul\":8527:8566   */\n      tag_62\n      jump\t// in\n    tag_165:\n        /* \"#utility.yul\":8588:8679   */\n      tag_166\n        /* \"#utility.yul\":8637:8678   */\n      tag_167\n        /* \"#utility.yul\":8661:8677   */\n      dup3\n        /* \"#utility.yul\":8637:8678   */\n      tag_63\n      jump\t// in\n    tag_167:\n        /* \"#utility.yul\":8629:8635   */\n      dup5\n        /* \"#utility.yul\":8622:8626   */\n      dup5\n        /* \"#utility.yul\":8616:8627   */\n      sload\n        /* \"#utility.yul\":8588:8679   */\n      tag_59\n      jump\t// in\n    tag_166:\n        /* \"#utility.yul\":8582:8586   */\n      dup3\n        /* \"#utility.yul\":8575:8680   */\n      sstore\n        /* \"#utility.yul\":8493:8686   */\n      pop\n        /* \"#utility.yul\":8417:8686   */\n      pop\n      pop\n      pop\n      jump\t// out\n        /* \"#utility.yul\":8692:8765   */\n    tag_65:\n        /* \"#utility.yul\":8737:8740   */\n      0x00\n        /* \"#utility.yul\":8692:8765   */\n      swap1\n      jump\t// out\n        /* \"#utility.yul\":8771:8960   */\n    tag_66:\n        /* \"#utility.yul\":8848:8880   */\n      tag_170\n      tag_65\n      jump\t// in\n    tag_170:\n        /* \"#utility.yul\":8889:8954   */\n      tag_171\n        /* \"#utility.yul\":8947:8953   */\n      dup2\n        /* \"#utility.yul\":8939:8945   */\n      dup5\n        /* \"#utility.yul\":8933:8937   */\n      dup5\n        /* \"#utility.yul\":8889:8954   */\n      tag_64\n      jump\t// in\n    tag_171:\n        /* \"#utility.yul\":8824:8960   */\n      pop\n        /* \"#utility.yul\":8771:8960   */\n      pop\n      pop\n      jump\t// out\n        /* \"#utility.yul\":8966:9152   */\n    tag_67:\n        /* \"#utility.yul\":9026:9146   */\n    tag_173:\n        /* \"#utility.yul\":9043:9046   */\n      dup2\n        /* \"#utility.yul\":9036:9041   */\n      dup2\n        /* \"#utility.yul\":9033:9047   */\n      lt\n        /* \"#utility.yul\":9026:9146   */\n      iszero\n      tag_175\n      jumpi\n        /* \"#utility.yul\":9097:9136   */\n      tag_176\n        /* \"#utility.yul\":9134:9135   */\n      0x00\n        /* \"#utility.yul\":9127:9132   */\n      dup3\n        /* \"#utility.yul\":9097:9136   */\n      tag_66\n      jump\t// in\n    tag_176:\n        /* \"#utility.yul\":9070:9071   */\n      0x01\n        /* \"#utility.yul\":9063:9068   */\n      dup2\n        /* \"#utility.yul\":9059:9072   */\n      add\n        /* \"#utility.yul\":9050:9072   */\n      swap1\n      pop\n        /* \"#utility.yul\":9026:9146   */\n      jump(tag_173)\n    tag_175:\n        /* \"#utility.yul\":8966:9152   */\n      pop\n      pop\n      jump\t// out\n        /* \"#utility.yul\":9158:9701   */\n    tag_68:\n        /* \"#utility.yul\":9259:9261   */\n      0x1f\n        /* \"#utility.yul\":9254:9257   */\n      dup3\n        /* \"#utility.yul\":9251:9262   */\n      gt\n        /* \"#utility.yul\":9248:9694   */\n      iszero\n      tag_178\n      jumpi\n        /* \"#utility.yul\":9293:9331   */\n      tag_179\n        /* \"#utility.yul\":9325:9330   */\n      dup2\n        /* \"#utility.yul\":9293:9331   */\n      tag_55\n      jump\t// in\n    tag_179:\n        /* \"#utility.yul\":9377:9406   */\n      tag_180\n        /* \"#utility.yul\":9395:9405   */\n      dup5\n        /* \"#utility.yul\":9377:9406   */\n      tag_57\n      jump\t// in\n    tag_180:\n        /* \"#utility.yul\":9367:9375   */\n      dup2\n        /* \"#utility.yul\":9363:9407   */\n      add\n        /* \"#utility.yul\":9560:9562   */\n      0x20\n        /* \"#utility.yul\":9548:9558   */\n      dup6\n        /* \"#utility.yul\":9545:9563   */\n      lt\n        /* \"#utility.yul\":9542:9591   */\n      iszero\n      tag_181\n      jumpi\n        /* \"#utility.yul\":9581:9589   */\n      dup2\n        /* \"#utility.yul\":9566:9589   */\n      swap1\n      pop\n        /* \"#utility.yul\":9542:9591   */\n    tag_181:\n        /* \"#utility.yul\":9604:9684   */\n      tag_182\n        /* \"#utility.yul\":9660:9682   */\n      tag_183\n        /* \"#utility.yul\":9678:9681   */\n      dup6\n        /* \"#utility.yul\":9660:9682   */\n      tag_57\n      jump\t// in\n    tag_183:\n        /* \"#utility.yul\":9650:9658   */\n      dup4\n        /* \"#utility.yul\":9646:9683   */\n      add\n        /* \"#utility.yul\":9633:9644   */\n      dup3\n        /* \"#utility.yul\":9604:9684   */\n      tag_67\n      jump\t// in\n    tag_182:\n        /* \"#utility.yul\":9263:9694   */\n      pop\n      pop\n        /* \"#utility.yul\":9248:9694   */\n    tag_178:\n        /* \"#utility.yul\":9158:9701   */\n      pop\n      pop\n      pop\n      jump\t// out\n        /* \"#utility.yul\":9707:9824   */\n    tag_69:\n        /* \"#utility.yul\":9761:9769   */\n      0x00\n        /* \"#utility.yul\":9811:9816   */\n      dup3\n        /* \"#utility.yul\":9805:9809   */\n      dup3\n        /* \"#utility.yul\":9801:9817   */\n      shr\n        /* \"#utility.yul\":9780:9817   */\n      swap1\n      pop\n        /* \"#utility.yul\":9707:9824   */\n      swap3\n      swap2\n      pop\n      pop\n      jump\t// out\n        /* \"#utility.yul\":9830:9999   */\n    tag_70:\n        /* \"#utility.yul\":9874:9880   */\n      0x00\n        /* \"#utility.yul\":9907:9958   */\n      tag_186\n        /* \"#utility.yul\":9955:9956   */\n      0x00\n        /* \"#utility.yul\":9951:9957   */\n      not\n        /* \"#utility.yul\":9943:9948   */\n      dup5\n        /* \"#utility.yul\":9940:9941   */\n      0x08\n        /* \"#utility.yul\":9936:9949   */\n      mul\n        /* \"#utility.yul\":9907:9958   */\n      tag_69\n      jump\t// in\n    tag_186:\n        /* \"#utility.yul\":9903:9959   */\n      not\n        /* \"#utility.yul\":9988:9992   */\n      dup1\n        /* \"#utility.yul\":9982:9986   */\n      dup4\n        /* \"#utility.yul\":9978:9993   */\n      and\n        /* \"#utility.yul\":9968:9993   */\n      swap2\n      pop\n        /* \"#utility.yul\":9881:9999   */\n      pop\n        /* \"#utility.yul\":9830:9999   */\n      swap3\n      swap2\n      pop\n      pop\n      jump\t// out\n        /* \"#utility.yul\":10004:10299   */\n    tag_71:\n        /* \"#utility.yul\":10080:10084   */\n      0x00\n        /* \"#utility.yul\":10226:10255   */\n      tag_188\n        /* \"#utility.yul\":10251:10254   */\n      dup4\n        /* \"#utility.yul\":10245:10249   */\n      dup4\n        /* \"#utility.yul\":10226:10255   */\n      tag_70\n      jump\t// in\n    tag_188:\n        /* \"#utility.yul\":10218:10255   */\n      swap2\n      pop\n        /* \"#utility.yul\":10288:10291   */\n      dup3\n        /* \"#utility.yul\":10285:10286   */\n      0x02\n        /* \"#utility.yul\":10281:10292   */\n      mul\n        /* \"#utility.yul\":10275:10279   */\n      dup3\n        /* \"#utility.yul\":10272:10293   */\n      or\n        /* \"#utility.yul\":10264:10293   */\n      swap1\n      pop\n        /* \"#utility.yul\":10004:10299   */\n      swap3\n      swap2\n      pop\n      pop\n      jump\t// out\n        /* \"#utility.yul\":10304:11699   */\n    tag_32:\n        /* \"#utility.yul\":10421:10458   */\n      tag_190\n        /* \"#utility.yul\":10454:10457   */\n      dup3\n        /* \"#utility.yul\":10421:10458   */\n      tag_33\n      jump\t// in\n    tag_190:\n        /* \"#utility.yul\":10523:10541   */\n      0xffffffffffffffff\n        /* \"#utility.yul\":10515:10521   */\n      dup2\n        /* \"#utility.yul\":10512:10542   */\n      gt\n        /* \"#utility.yul\":10509:10565   */\n      iszero\n      tag_191\n      jumpi\n        /* \"#utility.yul\":10545:10563   */\n      tag_192\n      tag_43\n      jump\t// in\n    tag_192:\n        /* \"#utility.yul\":10509:10565   */\n    tag_191:\n        /* \"#utility.yul\":10589:10627   */\n      tag_193\n        /* \"#utility.yul\":10621:10625   */\n      dup3\n        /* \"#utility.yul\":10615:10626   */\n      sload\n        /* \"#utility.yul\":10589:10627   */\n      tag_20\n      jump\t// in\n    tag_193:\n        /* \"#utility.yul\":10674:10741   */\n      tag_194\n        /* \"#utility.yul\":10734:10740   */\n      dup3\n        /* \"#utility.yul\":10726:10732   */\n      dup3\n        /* \"#utility.yul\":10720:10724   */\n      dup6\n        /* \"#utility.yul\":10674:10741   */\n      tag_68\n      jump\t// in\n    tag_194:\n        /* \"#utility.yul\":10768:10769   */\n      0x00\n        /* \"#utility.yul\":10792:10796   */\n      0x20\n        /* \"#utility.yul\":10779:10796   */\n      swap1\n      pop\n        /* \"#utility.yul\":10824:10826   */\n      0x1f\n        /* \"#utility.yul\":10816:10822   */\n      dup4\n        /* \"#utility.yul\":10813:10827   */\n      gt\n        /* \"#utility.yul\":10841:10842   */\n      0x01\n        /* \"#utility.yul\":10836:11454   */\n      dup2\n      eq\n      tag_196\n      jumpi\n        /* \"#utility.yul\":11498:11499   */\n      0x00\n        /* \"#utility.yul\":11515:11521   */\n      dup5\n        /* \"#utility.yul\":11512:11589   */\n      iszero\n      tag_197\n      jumpi\n        /* \"#utility.yul\":11564:11573   */\n      dup3\n        /* \"#utility.yul\":11559:11562   */\n      dup8\n        /* \"#utility.yul\":11555:11574   */\n      add\n        /* \"#utility.yul\":11549:11575   */\n      mload\n        /* \"#utility.yul\":11540:11575   */\n      swap1\n      pop\n        /* \"#utility.yul\":11512:11589   */\n    tag_197:\n        /* \"#utility.yul\":11615:11682   */\n      tag_198\n        /* \"#utility.yul\":11675:11681   */\n      dup6\n        /* \"#utility.yul\":11668:11673   */\n      dup3\n        /* \"#utility.yul\":11615:11682   */\n      tag_71\n      jump\t// in\n    tag_198:\n        /* \"#utility.yul\":11609:11613   */\n      dup7\n        /* \"#utility.yul\":11602:11683   */\n      sstore\n        /* \"#utility.yul\":11471:11693   */\n      pop\n        /* \"#utility.yul\":10806:11693   */\n      jump(tag_195)\n        /* \"#utility.yul\":10836:11454   */\n    tag_196:\n        /* \"#utility.yul\":10888:10892   */\n      0x1f\n        /* \"#utility.yul\":10884:10893   */\n      not\n        /* \"#utility.yul\":10876:10882   */\n      dup5\n        /* \"#utility.yul\":10872:10894   */\n      and\n        /* \"#utility.yul\":10922:10959   */\n      tag_199\n        /* \"#utility.yul\":10954:10958   */\n      dup7\n        /* \"#utility.yul\":10922:10959   */\n      tag_55\n      jump\t// in\n    tag_199:\n        /* \"#utility.yul\":10981:10982   */\n      0x00\n        /* \"#utility.yul\":10995:11203   */\n    tag_200:\n        /* \"#utility.yul\":11009:11016   */\n      dup3\n        /* \"#utility.yul\":11006:11007   */\n      dup2\n        /* \"#utility.yul\":11003:11017   */\n      lt\n        /* \"#utility.yul\":10995:11203   */\n      iszero\n      tag_202\n      jumpi\n        /* \"#utility.yul\":11088:11097   */\n      dup5\n        /* \"#utility.yul\":11083:11086   */\n      dup10\n        /* \"#utility.yul\":11079:11098   */\n      add\n        /* \"#utility.yul\":11073:11099   */\n      mload\n        /* \"#utility.yul\":11065:11071   */\n      dup3\n        /* \"#utility.yul\":11058:11100   */\n      sstore\n        /* \"#utility.yul\":11139:11140   */\n      0x01\n        /* \"#utility.yul\":11131:11137   */\n      dup3\n        /* \"#utility.yul\":11127:11141   */\n      add\n        /* \"#utility.yul\":11117:11141   */\n      swap2\n      pop\n        /* \"#utility.yul\":11186:11188   */\n      0x20\n        /* \"#utility.yul\":11175:11184   */\n      dup6\n        /* \"#utility.yul\":11171:11189   */\n      add\n        /* \"#utility.yul\":11158:11189   */\n      swap5\n      pop\n        /* \"#utility.yul\":11032:11036   */\n      0x20\n        /* \"#utility.yul\":11029:11030   */\n      dup2\n        /* \"#utility.yul\":11025:11037   */\n      add\n        /* \"#utility.yul\":11020:11037   */\n      swap1\n      pop\n        /* \"#utility.yul\":10995:11203   */\n      jump(tag_200)\n    tag_202:\n        /* \"#utility.yul\":11231:11237   */\n      dup7\n        /* \"#utility.yul\":11222:11229   */\n      dup4\n        /* \"#utility.yul\":11219:11238   */\n      lt\n        /* \"#utility.yul\":11216:11395   */\n      iszero\n      tag_203\n      jumpi\n        /* \"#utility.yul\":11289:11298   */\n      dup5\n        /* \"#utility.yul\":11284:11287   */\n      dup10\n        /* \"#utility.yul\":11280:11299   */\n      add\n        /* \"#utility.yul\":11274:11300   */\n      mload\n        /* \"#utility.yul\":11332:11380   */\n      tag_204\n        /* \"#utility.yul\":11374:11378   */\n      0x1f\n        /* \"#utility.yul\":11366:11372   */\n      dup10\n        /* \"#utility.yul\":11362:11379   */\n      and\n        /* \"#utility.yul\":11351:11360   */\n      dup3\n        /* \"#utility.yul\":11332:11380   */\n      tag_70\n      jump\t// in\n    tag_204:\n        /* \"#utility.yul\":11324:11330   */\n      dup4\n        /* \"#utility.yul\":11317:11381   */\n      sstore\n        /* \"#utility.yul\":11239:11395   */\n      pop\n        /* \"#utility.yul\":11216:11395   */\n    tag_203:\n        /* \"#utility.yul\":11441:11442   */\n      0x01\n        /* \"#utility.yul\":11437:11438   */\n      0x02\n        /* \"#utility.yul\":11429:11435   */\n      dup9\n        /* \"#utility.yul\":11425:11439   */\n      mul\n        /* \"#utility.yul\":11421:11443   */\n      add\n        /* \"#utility.yul\":11415:11419   */\n      dup9\n        /* \"#utility.yul\":11408:11444   */\n      sstore\n        /* \"#utility.yul\":10843:11454   */\n      pop\n      pop\n      pop\n        /* \"#utility.yul\":10806:11693   */\n    tag_195:\n      pop\n        /* \"#utility.yul\":10396:11699   */\n      pop\n      pop\n      pop\n        /* \"#utility.yul\":10304:11699   */\n      pop\n      pop\n      jump\t// out\n\n    auxdata: 0xa2646970667358221220db3ec3c56af985877c36962f0fbd650ccedc60349fa3016bda1cf1c742d43ecf64736f6c634300080f0033\n}\n",
				"bytecode": {
					"linkReferences": {},
					"object": "60806040526040518060400160405280600b81526020017f48656c6c6f20576f726c64000000000000000000000000000000000000000000815250600090816200004a9190620002d9565b503480156200005857600080fd5b50620003c0565b600081519050919050565b7f4e487b7100000000000000000000000000000000000000000000000000000000600052604160045260246000fd5b7f4e487b7100000000000000000000000000000000000000000000000000000000600052602260045260246000fd5b60006002820490506001821680620000e157607f821691505b602082108103620000f757620000f662000099565b5b50919050565b60008190508160005260206000209050919050565b60006020601f8301049050919050565b600082821b905092915050565b600060088302620001617fffffffffffffffffffffffffffffffffffffffffffffffffffffffffffffffff8262000122565b6200016d868362000122565b95508019841693508086168417925050509392505050565b6000819050919050565b6000819050919050565b6000620001ba620001b4620001ae8462000185565b6200018f565b62000185565b9050919050565b6000819050919050565b620001d68362000199565b620001ee620001e582620001c1565b8484546200012f565b825550505050565b600090565b62000205620001f6565b62000212818484620001cb565b505050565b5b818110156200023a576200022e600082620001fb565b60018101905062000218565b5050565b601f82111562000289576200025381620000fd565b6200025e8462000112565b810160208510156200026e578190505b620002866200027d8562000112565b83018262000217565b50505b505050565b600082821c905092915050565b6000620002ae600019846008026200028e565b1980831691505092915050565b6000620002c983836200029b565b9150826002028217905092915050565b620002e4826200005f565b67ffffffffffffffff8111156200030057620002ff6200006a565b5b6200030c8254620000c8565b620003198282856200023e565b600060209050601f8311600181146200035157600084156200033c578287015190505b620003488582620002bb565b865550620003b8565b601f1984166200036186620000fd565b60005b828110156200038b5784890151825560018201915060208501945060208101905062000364565b86831015620003ab5784890151620003a7601f8916826200029b565b8355505b6001600288020188555050505b505050505050565b61083880620003d06000396000f3fe608060405234801561001057600080fd5b50600436106100415760003560e01c8063492bfa18146100465780635ce25353146100645780638218056814610094575b600080fd5b61004e6100b0565b60405161005b9190610243565b60405180910390f35b61007e600480360381019061007991906103ae565b61013e565b60405161008b9190610412565b60405180910390f35b6100ae60048036038101906100a991906103ae565b610197565b005b600080546100bd9061045c565b80601f01602080910402602001604051908101604052809291908181526020018280546100e99061045c565b80156101365780601f1061010b57610100808354040283529160200191610136565b820191906000526020600020905b81548152906001019060200180831161011957829003601f168201915b505050505081565b60008160405160200161015191906104c9565b6040516020818303038152906040528051906020012060006040516020016101799190610578565b60405160208183030381529060405280519060200120149050919050565b80600090816101a69190610730565b5050565b600081519050919050565b600082825260208201905092915050565b60005b838110156101e45780820151818401526020810190506101c9565b838111156101f3576000848401525b50505050565b6000601f19601f8301169050919050565b6000610215826101aa565b61021f81856101b5565b935061022f8185602086016101c6565b610238816101f9565b840191505092915050565b6000602082019050818103600083015261025d818461020a565b905092915050565b6000604051905090565b600080fd5b600080fd5b600080fd5b600080fd5b7f4e487b7100000000000000000000000000000000000000000000000000000000600052604160045260246000fd5b6102bb826101f9565b810181811067ffffffffffffffff821117156102da576102d9610283565b5b80604052505050565b60006102ed610265565b90506102f982826102b2565b919050565b600067ffffffffffffffff82111561031957610318610283565b5b610322826101f9565b9050602081019050919050565b82818337600083830152505050565b600061035161034c846102fe565b6102e3565b90508281526020810184848401111561036d5761036c61027e565b5b61037884828561032f565b509392505050565b600082601f83011261039557610394610279565b5b81356103a584826020860161033e565b91505092915050565b6000602082840312156103c4576103c361026f565b5b600082013567ffffffffffffffff8111156103e2576103e1610274565b5b6103ee84828501610380565b91505092915050565b60008115159050919050565b61040c816103f7565b82525050565b60006020820190506104276000830184610403565b92915050565b7f4e487b7100000000000000000000000000000000000000000000000000000000600052602260045260246000fd5b6000600282049050600182168061047457607f821691505b6020821081036104875761048661042d565b5b50919050565b600081905092915050565b60006104a3826101aa565b6104ad818561048d565b93506104bd8185602086016101c6565b80840191505092915050565b60006104d58284610498565b915081905092915050565b60008190508160005260206000209050919050565b600081546105028161045c565b61050c818661048d565b94506001821660008114610527576001811461053c5761056f565b60ff198316865281151582028601935061056f565b610545856104e0565b60005b8381101561056757815481890152600182019150602081019050610548565b838801955050505b50505092915050565b600061058482846104f5565b915081905092915050565b60006020601f8301049050919050565b600082821b905092915050565b6000600883026105dc7fffffffffffffffffffffffffffffffffffffffffffffffffffffffffffffffff8261059f565b6105e6868361059f565b95508019841693508086168417925050509392505050565b6000819050919050565b6000819050919050565b600061062d610628610623846105fe565b610608565b6105fe565b9050919050565b6000819050919050565b61064783610612565b61065b61065382610634565b8484546105ac565b825550505050565b600090565b610670610663565b61067b81848461063e565b505050565b5b8181101561069f57610694600082610668565b600181019050610681565b5050565b601f8211156106e4576106b5816104e0565b6106be8461058f565b810160208510156106cd578190505b6106e16106d98561058f565b830182610680565b50505b505050565b600082821c905092915050565b6000610707600019846008026106e9565b1980831691505092915050565b600061072083836106f6565b9150826002028217905092915050565b610739826101aa565b67ffffffffffffffff81111561075257610751610283565b5b61075c825461045c565b6107678282856106a3565b600060209050601f83116001811461079a5760008415610788578287015190505b6107928582610714565b8655506107fa565b601f1984166107a8866104e0565b60005b828110156107d0578489015182556001820191506020850194506020810190506107ab565b868310156107ed57848901516107e9601f8916826106f6565b8355505b6001600288020188555050505b50505050505056fea2646970667358221220db3ec3c56af985877c36962f0fbd650ccedc60349fa3016bda1cf1c742d43ecf64736f6c634300080f0033",
					"opcodes": "PUSH1 0x80 PUSH1 0x40 MSTORE PUSH1 0x40 MLOAD DUP1 PUSH1 0x40 ADD PUSH1 0x40 MSTORE DUP1 PUSH1 0xB DUP2 MSTORE PUSH1 0x20 ADD PUSH32 0x48656C6C6F20576F726C64000000000000000000000000000000000000000000 DUP2 MSTORE POP PUSH1 0x0 SWAP1 DUP2 PUSH3 0x4A SWAP2 SWAP1 PUSH3 0x2D9 JUMP JUMPDEST POP CALLVALUE DUP1 ISZERO PUSH3 0x58 JUMPI PUSH1 0x0 DUP1 REVERT JUMPDEST POP PUSH3 0x3C0 JUMP JUMPDEST PUSH1 0x0 DUP2 MLOAD SWAP1 POP SWAP2 SWAP1 POP JUMP JUMPDEST PUSH32 0x4E487B7100000000000000000000000000000000000000000000000000000000 PUSH1 0x0 MSTORE PUSH1 0x41 PUSH1 0x4 MSTORE PUSH1 0x24 PUSH1 0x0 REVERT JUMPDEST PUSH32 0x4E487B7100000000000000000000000000000000000000000000000000000000 PUSH1 0x0 MSTORE PUSH1 0x22 PUSH1 0x4 MSTORE PUSH1 0x24 PUSH1 0x0 REVERT JUMPDEST PUSH1 0x0 PUSH1 0x2 DUP3 DIV SWAP1 POP PUSH1 0x1 DUP3 AND DUP1 PUSH3 0xE1 JUMPI PUSH1 0x7F DUP3 AND SWAP2 POP JUMPDEST PUSH1 0x20 DUP3 LT DUP2 SUB PUSH3 0xF7 JUMPI PUSH3 0xF6 PUSH3 0x99 JUMP JUMPDEST JUMPDEST POP SWAP2 SWAP1 POP JUMP JUMPDEST PUSH1 0x0 DUP2 SWAP1 POP DUP2 PUSH1 0x0 MSTORE PUSH1 0x20 PUSH1 0x0 KECCAK256 SWAP1 POP SWAP2 SWAP1 POP JUMP JUMPDEST PUSH1 0x0 PUSH1 0x20 PUSH1 0x1F DUP4 ADD DIV SWAP1 POP SWAP2 SWAP1 POP JUMP JUMPDEST PUSH1 0x0 DUP3 DUP3 SHL SWAP1 POP SWAP3 SWAP2 POP POP JUMP JUMPDEST PUSH1 0x0 PUSH1 0x8 DUP4 MUL PUSH3 0x161 PUSH32 0xFFFFFFFFFFFFFFFFFFFFFFFFFFFFFFFFFFFFFFFFFFFFFFFFFFFFFFFFFFFFFFFF DUP3 PUSH3 0x122 JUMP JUMPDEST PUSH3 0x16D DUP7 DUP4 PUSH3 0x122 JUMP JUMPDEST SWAP6 POP DUP1 NOT DUP5 AND SWAP4 POP DUP1 DUP7 AND DUP5 OR SWAP3 POP POP POP SWAP4 SWAP3 POP POP POP JUMP JUMPDEST PUSH1 0x0 DUP2 SWAP1 POP SWAP2 SWAP1 POP JUMP JUMPDEST PUSH1 0x0 DUP2 SWAP1 POP SWAP2 SWAP1 POP JUMP JUMPDEST PUSH1 0x0 PUSH3 0x1BA PUSH3 0x1B4 PUSH3 0x1AE DUP5 PUSH3 0x185 JUMP JUMPDEST PUSH3 0x18F JUMP JUMPDEST PUSH3 0x185 JUMP JUMPDEST SWAP1 POP SWAP2 SWAP1 POP JUMP JUMPDEST PUSH1 0x0 DUP2 SWAP1 POP SWAP2 SWAP1 POP JUMP JUMPDEST PUSH3 0x1D6 DUP4 PUSH3 0x199 JUMP JUMPDEST PUSH3 0x1EE PUSH3 0x1E5 DUP3 PUSH3 0x1C1 JUMP JUMPDEST DUP5 DUP5 SLOAD PUSH3 0x12F JUMP JUMPDEST DUP3 SSTORE POP POP POP POP JUMP JUMPDEST PUSH1 0x0 SWAP1 JUMP JUMPDEST PUSH3 0x205 PUSH3 0x1F6 JUMP JUMPDEST PUSH3 0x212 DUP2 DUP5 DUP5 PUSH3 0x1CB JUMP JUMPDEST POP POP POP JUMP JUMPDEST JUMPDEST DUP2 DUP2 LT ISZERO PUSH3 0x23A JUMPI PUSH3 0x22E PUSH1 0x0 DUP3 PUSH3 0x1FB JUMP JUMPDEST PUSH1 0x1 DUP2 ADD SWAP1 POP PUSH3 0x218 JUMP JUMPDEST POP POP JUMP JUMPDEST PUSH1 0x1F DUP3 GT ISZERO PUSH3 0x289 JUMPI PUSH3 0x253 DUP2 PUSH3 0xFD JUMP JUMPDEST PUSH3 0x25E DUP5 PUSH3 0x112 JUMP JUMPDEST DUP2 ADD PUSH1 0x20 DUP6 LT ISZERO PUSH3 0x26E JUMPI DUP2 SWAP1 POP JUMPDEST PUSH3 0x286 PUSH3 0x27D DUP6 PUSH3 0x112 JUMP JUMPDEST DUP4 ADD DUP3 PUSH3 0x217 JUMP JUMPDEST POP POP JUMPDEST POP POP POP JUMP JUMPDEST PUSH1 0x0 DUP3 DUP3 SHR SWAP1 POP SWAP3 SWAP2 POP POP JUMP JUMPDEST PUSH1 0x0 PUSH3 0x2AE PUSH1 0x0 NOT DUP5 PUSH1 0x8 MUL PUSH3 0x28E JUMP JUMPDEST NOT DUP1 DUP4 AND SWAP2 POP POP SWAP3 SWAP2 POP POP JUMP JUMPDEST PUSH1 0x0 PUSH3 0x2C9 DUP4 DUP4 PUSH3 0x29B JUMP JUMPDEST SWAP2 POP DUP3 PUSH1 0x2 MUL DUP3 OR SWAP1 POP SWAP3 SWAP2 POP POP JUMP JUMPDEST PUSH3 0x2E4 DUP3 PUSH3 0x5F JUMP JUMPDEST PUSH8 0xFFFFFFFFFFFFFFFF DUP2 GT ISZERO PUSH3 0x300 JUMPI PUSH3 0x2FF PUSH3 0x6A JUMP JUMPDEST JUMPDEST PUSH3 0x30C DUP3 SLOAD PUSH3 0xC8 JUMP JUMPDEST PUSH3 0x319 DUP3 DUP3 DUP6 PUSH3 0x23E JUMP JUMPDEST PUSH1 0x0 PUSH1 0x20 SWAP1 POP PUSH1 0x1F DUP4 GT PUSH1 0x1 DUP2 EQ PUSH3 0x351 JUMPI PUSH1 0x0 DUP5 ISZERO PUSH3 0x33C JUMPI DUP3 DUP8 ADD MLOAD SWAP1 POP JUMPDEST PUSH3 0x348 DUP6 DUP3 PUSH3 0x2BB JUMP JUMPDEST DUP7 SSTORE POP PUSH3 0x3B8 JUMP JUMPDEST PUSH1 0x1F NOT DUP5 AND PUSH3 0x361 DUP7 PUSH3 0xFD JUMP JUMPDEST PUSH1 0x0 JUMPDEST DUP3 DUP2 LT ISZERO PUSH3 0x38B JUMPI DUP5 DUP10 ADD MLOAD DUP3 SSTORE PUSH1 0x1 DUP3 ADD SWAP2 POP PUSH1 0x20 DUP6 ADD SWAP5 POP PUSH1 0x20 DUP2 ADD SWAP1 POP PUSH3 0x364 JUMP JUMPDEST DUP7 DUP4 LT ISZERO PUSH3 0x3AB JUMPI DUP5 DUP10 ADD MLOAD PUSH3 0x3A7 PUSH1 0x1F DUP10 AND DUP3 PUSH3 0x29B JUMP JUMPDEST DUP4 SSTORE POP JUMPDEST PUSH1 0x1 PUSH1 0x2 DUP9 MUL ADD DUP9 SSTORE POP POP POP JUMPDEST POP POP POP POP POP POP JUMP JUMPDEST PUSH2 0x838 DUP1 PUSH3 0x3D0 PUSH1 0x0 CODECOPY PUSH1 0x0 RETURN INVALID PUSH1 0x80 PUSH1 0x40 MSTORE CALLVALUE DUP1 ISZERO PUSH2 0x10 JUMPI PUSH1 0x0 DUP1 REVERT JUMPDEST POP PUSH1 0x4 CALLDATASIZE LT PUSH2 0x41 JUMPI PUSH1 0x0 CALLDATALOAD PUSH1 0xE0 SHR DUP1 PUSH4 0x492BFA18 EQ PUSH2 0x46 JUMPI DUP1 PUSH4 0x5CE25353 EQ PUSH2 0x64 JUMPI DUP1 PUSH4 0x82180568 EQ PUSH2 0x94 JUMPI JUMPDEST PUSH1 0x0 DUP1 REVERT JUMPDEST PUSH2 0x4E PUSH2 0xB0 JUMP JUMPDEST PUSH1 0x40 MLOAD PUSH2 0x5B SWAP2 SWAP1 PUSH2 0x243 JUMP JUMPDEST PUSH1 0x40 MLOAD DUP1 SWAP2 SUB SWAP1 RETURN JUMPDEST PUSH2 0x7E PUSH1 0x4 DUP1 CALLDATASIZE SUB DUP2 ADD SWAP1 PUSH2 0x79 SWAP2 SWAP1 PUSH2 0x3AE JUMP JUMPDEST PUSH2 0x13E JUMP JUMPDEST PUSH1 0x40 MLOAD PUSH2 0x8B SWAP2 SWAP1 PUSH2 0x412 JUMP JUMPDEST PUSH1 0x40 MLOAD DUP1 SWAP2 SUB SWAP1 RETURN JUMPDEST PUSH2 0xAE PUSH1 0x4 DUP1 CALLDATASIZE SUB DUP2 ADD SWAP1 PUSH2 0xA9 SWAP2 SWAP1 PUSH2 0x3AE JUMP JUMPDEST PUSH2 0x197 JUMP JUMPDEST STOP JUMPDEST PUSH1 0x0 DUP1 SLOAD PUSH2 0xBD SWAP1 PUSH2 0x45C JUMP JUMPDEST DUP1 PUSH1 0x1F ADD PUSH1 0x20 DUP1 SWAP2 DIV MUL PUSH1 0x20 ADD PUSH1 0x40 MLOAD SWAP1 DUP2 ADD PUSH1 0x40 MSTORE DUP1 SWAP3 SWAP2 SWAP1 DUP2 DUP2 MSTORE PUSH1 0x20 ADD DUP3 DUP1 SLOAD PUSH2 0xE9 SWAP1 PUSH2 0x45C JUMP JUMPDEST DUP1 ISZERO PUSH2 0x136 JUMPI DUP1 PUSH1 0x1F LT PUSH2 0x10B JUMPI PUSH2 0x100 DUP1 DUP4 SLOAD DIV MUL DUP4 MSTORE SWAP2 PUSH1 0x20 ADD SWAP2 PUSH2 0x136 JUMP JUMPDEST DUP3 ADD SWAP2 SWAP1 PUSH1 0x0 MSTORE PUSH1 0x20 PUSH1 0x0 KECCAK256 SWAP1 JUMPDEST DUP2 SLOAD DUP2 MSTORE SWAP1 PUSH1 0x1 ADD SWAP1 PUSH1 0x20 ADD DUP1 DUP4 GT PUSH2 0x119 JUMPI DUP3 SWAP1 SUB PUSH1 0x1F AND DUP3 ADD SWAP2 JUMPDEST POP POP POP POP POP DUP2 JUMP JUMPDEST PUSH1 0x0 DUP2 PUSH1 0x40 MLOAD PUSH1 0x20 ADD PUSH2 0x151 SWAP2 SWAP1 PUSH2 0x4C9 JUMP JUMPDEST PUSH1 0x40 MLOAD PUSH1 0x20 DUP2 DUP4 SUB SUB DUP2 MSTORE SWAP1 PUSH1 0x40 MSTORE DUP1 MLOAD SWAP1 PUSH1 0x20 ADD KECCAK256 PUSH1 0x0 PUSH1 0x40 MLOAD PUSH1 0x20 ADD PUSH2 0x179 SWAP2 SWAP1 PUSH2 0x578 JUMP JUMPDEST PUSH1 0x40 MLOAD PUSH1 0x20 DUP2 DUP4 SUB SUB DUP2 MSTORE SWAP1 PUSH1 0x40 MSTORE DUP1 MLOAD SWAP1 PUSH1 0x20 ADD KECCAK256 EQ SWAP1 POP SWAP2 SWAP1 POP JUMP JUMPDEST DUP1 PUSH1 0x0 SWAP1 DUP2 PUSH2 0x1A6 SWAP2 SWAP1 PUSH2 0x730 JUMP JUMPDEST POP POP JUMP JUMPDEST PUSH1 0x0 DUP2 MLOAD SWAP1 POP SWAP2 SWAP1 POP JUMP JUMPDEST PUSH1 0x0 DUP3 DUP3 MSTORE PUSH1 0x20 DUP3 ADD SWAP1 POP SWAP3 SWAP2 POP POP JUMP JUMPDEST PUSH1 0x0 JUMPDEST DUP4 DUP2 LT ISZERO PUSH2 0x1E4 JUMPI DUP1 DUP3 ADD MLOAD DUP2 DUP5 ADD MSTORE PUSH1 0x20 DUP2 ADD SWAP1 POP PUSH2 0x1C9 JUMP JUMPDEST DUP4 DUP2 GT ISZERO PUSH2 0x1F3 JUMPI PUSH1 0x0 DUP5 DUP5 ADD MSTORE JUMPDEST POP POP POP POP JUMP JUMPDEST PUSH1 0x0 PUSH1 0x1F NOT PUSH1 0x1F DUP4 ADD AND SWAP1 POP SWAP2 SWAP1 POP JUMP JUMPDEST PUSH1 0x0 PUSH2 0x215 DUP3 PUSH2 0x1AA JUMP JUMPDEST PUSH2 0x21F DUP2 DUP6 PUSH2 0x1B5 JUMP JUMPDEST SWAP4 POP PUSH2 0x22F DUP2 DUP6 PUSH1 0x20 DUP7 ADD PUSH2 0x1C6 JUMP JUMPDEST PUSH2 0x238 DUP2 PUSH2 0x1F9 JUMP JUMPDEST DUP5 ADD SWAP2 POP POP SWAP3 SWAP2 POP POP JUMP JUMPDEST PUSH1 0x0 PUSH1 0x20 DUP3 ADD SWAP1 POP DUP2 DUP2 SUB PUSH1 0x0 DUP4 ADD MSTORE PUSH2 0x25D DUP2 DUP5 PUSH2 0x20A JUMP JUMPDEST SWAP1 POP SWAP3 SWAP2 POP POP JUMP JUMPDEST PUSH1 0x0 PUSH1 0x40 MLOAD SWAP1 POP SWAP1 JUMP JUMPDEST PUSH1 0x0 DUP1 REVERT JUMPDEST PUSH1 0x0 DUP1 REVERT JUMPDEST PUSH1 0x0 DUP1 REVERT JUMPDEST PUSH1 0x0 DUP1 REVERT JUMPDEST PUSH32 0x4E487B7100000000000000000000000000000000000000000000000000000000 PUSH1 0x0 MSTORE PUSH1 0x41 PUSH1 0x4 MSTORE PUSH1 0x24 PUSH1 0x0 REVERT JUMPDEST PUSH2 0x2BB DUP3 PUSH2 0x1F9 JUMP JUMPDEST DUP2 ADD DUP2 DUP2 LT PUSH8 0xFFFFFFFFFFFFFFFF DUP3 GT OR ISZERO PUSH2 0x2DA JUMPI PUSH2 0x2D9 PUSH2 0x283 JUMP JUMPDEST JUMPDEST DUP1 PUSH1 0x40 MSTORE POP POP POP JUMP JUMPDEST PUSH1 0x0 PUSH2 0x2ED PUSH2 0x265 JUMP JUMPDEST SWAP1 POP PUSH2 0x2F9 DUP3 DUP3 PUSH2 0x2B2 JUMP JUMPDEST SWAP2 SWAP1 POP JUMP JUMPDEST PUSH1 0x0 PUSH8 0xFFFFFFFFFFFFFFFF DUP3 GT ISZERO PUSH2 0x319 JUMPI PUSH2 0x318 PUSH2 0x283 JUMP JUMPDEST JUMPDEST PUSH2 0x322 DUP3 PUSH2 0x1F9 JUMP JUMPDEST SWAP1 POP PUSH1 0x20 DUP2 ADD SWAP1 POP SWAP2 SWAP1 POP JUMP JUMPDEST DUP3 DUP2 DUP4 CALLDATACOPY PUSH1 0x0 DUP4 DUP4 ADD MSTORE POP POP POP JUMP JUMPDEST PUSH1 0x0 PUSH2 0x351 PUSH2 0x34C DUP5 PUSH2 0x2FE JUMP JUMPDEST PUSH2 0x2E3 JUMP JUMPDEST SWAP1 POP DUP3 DUP2 MSTORE PUSH1 0x20 DUP2 ADD DUP5 DUP5 DUP5 ADD GT ISZERO PUSH2 0x36D JUMPI PUSH2 0x36C PUSH2 0x27E JUMP JUMPDEST JUMPDEST PUSH2 0x378 DUP5 DUP3 DUP6 PUSH2 0x32F JUMP JUMPDEST POP SWAP4 SWAP3 POP POP POP JUMP JUMPDEST PUSH1 0x0 DUP3 PUSH1 0x1F DUP4 ADD SLT PUSH2 0x395 JUMPI PUSH2 0x394 PUSH2 0x279 JUMP JUMPDEST JUMPDEST DUP2 CALLDATALOAD PUSH2 0x3A5 DUP5 DUP3 PUSH1 0x20 DUP7 ADD PUSH2 0x33E JUMP JUMPDEST SWAP2 POP POP SWAP3 SWAP2 POP POP JUMP JUMPDEST PUSH1 0x0 PUSH1 0x20 DUP3 DUP5 SUB SLT ISZERO PUSH2 0x3C4 JUMPI PUSH2 0x3C3 PUSH2 0x26F JUMP JUMPDEST JUMPDEST PUSH1 0x0 DUP3 ADD CALLDATALOAD PUSH8 0xFFFFFFFFFFFFFFFF DUP2 GT ISZERO PUSH2 0x3E2 JUMPI PUSH2 0x3E1 PUSH2 0x274 JUMP JUMPDEST JUMPDEST PUSH2 0x3EE DUP5 DUP3 DUP6 ADD PUSH2 0x380 JUMP JUMPDEST SWAP2 POP POP SWAP3 SWAP2 POP POP JUMP JUMPDEST PUSH1 0x0 DUP2 ISZERO ISZERO SWAP1 POP SWAP2 SWAP1 POP JUMP JUMPDEST PUSH2 0x40C DUP2 PUSH2 0x3F7 JUMP JUMPDEST DUP3 MSTORE POP POP JUMP JUMPDEST PUSH1 0x0 PUSH1 0x20 DUP3 ADD SWAP1 POP PUSH2 0x427 PUSH1 0x0 DUP4 ADD DUP5 PUSH2 0x403 JUMP JUMPDEST SWAP3 SWAP2 POP POP JUMP JUMPDEST PUSH32 0x4E487B7100000000000000000000000000000000000000000000000000000000 PUSH1 0x0 MSTORE PUSH1 0x22 PUSH1 0x4 MSTORE PUSH1 0x24 PUSH1 0x0 REVERT JUMPDEST PUSH1 0x0 PUSH1 0x2 DUP3 DIV SWAP1 POP PUSH1 0x1 DUP3 AND DUP1 PUSH2 0x474 JUMPI PUSH1 0x7F DUP3 AND SWAP2 POP JUMPDEST PUSH1 0x20 DUP3 LT DUP2 SUB PUSH2 0x487 JUMPI PUSH2 0x486 PUSH2 0x42D JUMP JUMPDEST JUMPDEST POP SWAP2 SWAP1 POP JUMP JUMPDEST PUSH1 0x0 DUP2 SWAP1 POP SWAP3 SWAP2 POP POP JUMP JUMPDEST PUSH1 0x0 PUSH2 0x4A3 DUP3 PUSH2 0x1AA JUMP JUMPDEST PUSH2 0x4AD DUP2 DUP6 PUSH2 0x48D JUMP JUMPDEST SWAP4 POP PUSH2 0x4BD DUP2 DUP6 PUSH1 0x20 DUP7 ADD PUSH2 0x1C6 JUMP JUMPDEST DUP1 DUP5 ADD SWAP2 POP POP SWAP3 SWAP2 POP POP JUMP JUMPDEST PUSH1 0x0 PUSH2 0x4D5 DUP3 DUP5 PUSH2 0x498 JUMP JUMPDEST SWAP2 POP DUP2 SWAP1 POP SWAP3 SWAP2 POP POP JUMP JUMPDEST PUSH1 0x0 DUP2 SWAP1 POP DUP2 PUSH1 0x0 MSTORE PUSH1 0x20 PUSH1 0x0 KECCAK256 SWAP1 POP SWAP2 SWAP1 POP JUMP JUMPDEST PUSH1 0x0 DUP2 SLOAD PUSH2 0x502 DUP2 PUSH2 0x45C JUMP JUMPDEST PUSH2 0x50C DUP2 DUP7 PUSH2 0x48D JUMP JUMPDEST SWAP5 POP PUSH1 0x1 DUP3 AND PUSH1 0x0 DUP2 EQ PUSH2 0x527 JUMPI PUSH1 0x1 DUP2 EQ PUSH2 0x53C JUMPI PUSH2 0x56F JUMP JUMPDEST PUSH1 0xFF NOT DUP4 AND DUP7 MSTORE DUP2 ISZERO ISZERO DUP3 MUL DUP7 ADD SWAP4 POP PUSH2 0x56F JUMP JUMPDEST PUSH2 0x545 DUP6 PUSH2 0x4E0 JUMP JUMPDEST PUSH1 0x0 JUMPDEST DUP4 DUP2 LT ISZERO PUSH2 0x567 JUMPI DUP2 SLOAD DUP2 DUP10 ADD MSTORE PUSH1 0x1 DUP3 ADD SWAP2 POP PUSH1 0x20 DUP2 ADD SWAP1 POP PUSH2 0x548 JUMP JUMPDEST DUP4 DUP9 ADD SWAP6 POP POP POP JUMPDEST POP POP POP SWAP3 SWAP2 POP POP JUMP JUMPDEST PUSH1 0x0 PUSH2 0x584 DUP3 DUP5 PUSH2 0x4F5 JUMP JUMPDEST SWAP2 POP DUP2 SWAP1 POP SWAP3 SWAP2 POP POP JUMP JUMPDEST PUSH1 0x0 PUSH1 0x20 PUSH1 0x1F DUP4 ADD DIV SWAP1 POP SWAP2 SWAP1 POP JUMP JUMPDEST PUSH1 0x0 DUP3 DUP3 SHL SWAP1 POP SWAP3 SWAP2 POP POP JUMP JUMPDEST PUSH1 0x0 PUSH1 0x8 DUP4 MUL PUSH2 0x5DC PUSH32 0xFFFFFFFFFFFFFFFFFFFFFFFFFFFFFFFFFFFFFFFFFFFFFFFFFFFFFFFFFFFFFFFF DUP3 PUSH2 0x59F JUMP JUMPDEST PUSH2 0x5E6 DUP7 DUP4 PUSH2 0x59F JUMP JUMPDEST SWAP6 POP DUP1 NOT DUP5 AND SWAP4 POP DUP1 DUP7 AND DUP5 OR SWAP3 POP POP POP SWAP4 SWAP3 POP POP POP JUMP JUMPDEST PUSH1 0x0 DUP2 SWAP1 POP SWAP2 SWAP1 POP JUMP JUMPDEST PUSH1 0x0 DUP2 SWAP1 POP SWAP2 SWAP1 POP JUMP JUMPDEST PUSH1 0x0 PUSH2 0x62D PUSH2 0x628 PUSH2 0x623 DUP5 PUSH2 0x5FE JUMP JUMPDEST PUSH2 0x608 JUMP JUMPDEST PUSH2 0x5FE JUMP JUMPDEST SWAP1 POP SWAP2 SWAP1 POP JUMP JUMPDEST PUSH1 0x0 DUP2 SWAP1 POP SWAP2 SWAP1 POP JUMP JUMPDEST PUSH2 0x647 DUP4 PUSH2 0x612 JUMP JUMPDEST PUSH2 0x65B PUSH2 0x653 DUP3 PUSH2 0x634 JUMP JUMPDEST DUP5 DUP5 SLOAD PUSH2 0x5AC JUMP JUMPDEST DUP3 SSTORE POP POP POP POP JUMP JUMPDEST PUSH1 0x0 SWAP1 JUMP JUMPDEST PUSH2 0x670 PUSH2 0x663 JUMP JUMPDEST PUSH2 0x67B DUP2 DUP5 DUP5 PUSH2 0x63E JUMP JUMPDEST POP POP POP JUMP JUMPDEST JUMPDEST DUP2 DUP2 LT ISZERO PUSH2 0x69F JUMPI PUSH2 0x694 PUSH1 0x0 DUP3 PUSH2 0x668 JUMP JUMPDEST PUSH1 0x1 DUP2 ADD SWAP1 POP PUSH2 0x681 JUMP JUMPDEST POP POP JUMP JUMPDEST PUSH1 0x1F DUP3 GT ISZERO PUSH2 0x6E4 JUMPI PUSH2 0x6B5 DUP2 PUSH2 0x4E0 JUMP JUMPDEST PUSH2 0x6BE DUP5 PUSH2 0x58F JUMP JUMPDEST DUP2 ADD PUSH1 0x20 DUP6 LT ISZERO PUSH2 0x6CD JUMPI DUP2 SWAP1 POP JUMPDEST PUSH2 0x6E1 PUSH2 0x6D9 DUP6 PUSH2 0x58F JUMP JUMPDEST DUP4 ADD DUP3 PUSH2 0x680 JUMP JUMPDEST POP POP JUMPDEST POP POP POP JUMP JUMPDEST PUSH1 0x0 DUP3 DUP3 SHR SWAP1 POP SWAP3 SWAP2 POP POP JUMP JUMPDEST PUSH1 0x0 PUSH2 0x707 PUSH1 0x0 NOT DUP5 PUSH1 0x8 MUL PUSH2 0x6E9 JUMP JUMPDEST NOT DUP1 DUP4 AND SWAP2 POP POP SWAP3 SWAP2 POP POP JUMP JUMPDEST PUSH1 0x0 PUSH2 0x720 DUP4 DUP4 PUSH2 0x6F6 JUMP JUMPDEST SWAP2 POP DUP3 PUSH1 0x2 MUL DUP3 OR SWAP1 POP SWAP3 SWAP2 POP POP JUMP JUMPDEST PUSH2 0x739 DUP3 PUSH2 0x1AA JUMP JUMPDEST PUSH8 0xFFFFFFFFFFFFFFFF DUP2 GT ISZERO PUSH2 0x752 JUMPI PUSH2 0x751 PUSH2 0x283 JUMP JUMPDEST JUMPDEST PUSH2 0x75C DUP3 SLOAD PUSH2 0x45C JUMP JUMPDEST PUSH2 0x767 DUP3 DUP3 DUP6 PUSH2 0x6A3 JUMP JUMPDEST PUSH1 0x0 PUSH1 0x20 SWAP1 POP PUSH1 0x1F DUP4 GT PUSH1 0x1 DUP2 EQ PUSH2 0x79A JUMPI PUSH1 0x0 DUP5 ISZERO PUSH2 0x788 JUMPI DUP3 DUP8 ADD MLOAD SWAP1 POP JUMPDEST PUSH2 0x792 DUP6 DUP3 PUSH2 0x714 JUMP JUMPDEST DUP7 SSTORE POP PUSH2 0x7FA JUMP JUMPDEST PUSH1 0x1F NOT DUP5 AND PUSH2 0x7A8 DUP7 PUSH2 0x4E0 JUMP JUMPDEST PUSH1 0x0 JUMPDEST DUP3 DUP2 LT ISZERO PUSH2 0x7D0 JUMPI DUP5 DUP10 ADD MLOAD DUP3 SSTORE PUSH1 0x1 DUP3 ADD SWAP2 POP PUSH1 0x20 DUP6 ADD SWAP5 POP PUSH1 0x20 DUP2 ADD SWAP1 POP PUSH2 0x7AB JUMP JUMPDEST DUP7 DUP4 LT ISZERO PUSH2 0x7ED JUMPI DUP5 DUP10 ADD MLOAD PUSH2 0x7E9 PUSH1 0x1F DUP10 AND DUP3 PUSH2 0x6F6 JUMP JUMPDEST DUP4 SSTORE POP JUMPDEST PUSH1 0x1 PUSH1 0x2 DUP9 MUL ADD DUP9 SSTORE POP POP POP JUMPDEST POP POP POP POP POP POP JUMP INVALID LOG2 PUSH5 0x6970667358 0x22 SLT KECCAK256 0xDB RETURNDATACOPY 0xC3 0xC5 PUSH11 0xF985877C36962F0FBD650C 0xCE 0xDC PUSH1 0x34 SWAP16 LOG3 ADD PUSH12 0xDA1CF1C742D43ECF64736F6C PUSH4 0x4300080F STOP CALLER "
				},
				"gasEstimates": {
					"creation": {
						"codeDepositCost": "420800",
						"executionCost": "infinite",
						"totalCost": "infinite"
					},
					"external": {
						"compareTwoStrings(string)": "infinite",
						"myString()": "infinite",
						"setMyString(string)": "infinite"
					}
				},
				"methodIdentifiers": {
					"compareTwoStrings(string)": "5ce25353",
					"myString()": "492bfa18",
					"setMyString(string)": "82180568"
				}
			},
			"storageLayout": {
				"storage": [
					{
						"astId": 4,
						"contract": "contracts/ExampleStrings.sol:ExampleStrings",
						"label": "myString",
						"offset": 0,
						"slot": "0",
						"type": "t_string_storage"
					}
				],
				"types": {
					"t_string_storage": {
						"encoding": "bytes",
						"label": "string",
						"numberOfBytes": "32"
					}
				}
			},
			"userdoc": {
				"kind": "user",
				"methods": {},
				"version": 1
			}
		}
	}
}